:10000000A8210020591100005511000055110000D1
:1000100000000000000000000000000000000000E0
:10002000000000000000000000000000551100006A
:1000300000000000000000005511000055110000F4
:100040005511000055110000551100005511000018
:10005000551100005511000055110000310B000032
:10006000410B0000510B0000610B0000710B000000
:10007000810B0000551100005511000055110000C2
:1000800055110000551100005511000055110000D8
:1000900055110000551100005511000055110000C8
:1000A0005511000008B5064B064803331B1A062BF2
:1000B00000D808BD044B002BFBD09847F9E7C04699
:1000C00044330000443300000000000008B5074836
:1000D000074B1B1A9B10DA0FD318591000D108BD1B
:1000E000044A002AFBD09047F9E7C0464433000099
:1000F000443300000000000010B5074C2378002BAB
:1001000009D1FFF7CFFF054B002B02D0044800E0D8
:1001100000BF0123237010BD6C0000200000000010
:100120004433000008B5094B002B03D008480949A7
:1001300000E000BF08480368002B03D0074B002BEA
:1001400000D09847FFF7C2FF08BDC046000000007E
:100150004433000070000020443300000000000021
:1001600000B583B001AB80221A700A785A704A78C1
:100170009A708A78DA70191C014B984703B000BD59
:100180000111000010B5031C4908402099420CD30E
:100190000024C91A601C80B28B4201D8041CF8E705
:1001A0004020FF2C01D81480002010BD000000006A
:1001B000F0B55F4656464D464446F0B487B0061C3F
:1001C0000D1C049210AA1078321C424340248A422B
:1001D00000D9B3E0002B4BD10021321C5E4CA0476C
:1001E00083462E1C002700200021002200233F24EC
:1001F000A4460125A846029003916146203903D404
:1002000040468840814605E0202165464C1B40461B
:10021000E040814641466446A1408A46101C191CB4
:1002200080185941021C0B1C5D464C46254202D0E9
:10023000424602430B1C9F420CD801D1964209D87A
:10024000921BBB415046029D28434946039C2143D3
:10025000029003916546013DAC46CED202980399C7
:100260003C4B3B4A121A8B41120C1B041A4362E0AE
:100270000022012B5FD14F0FB946CD00AB460021C4
:10028000321C0023344CA047061C0F1C0023012500
:10029000029603979A465046C0B2059000218846C0
:1002A000002200233F24271C203F03D42E1CBE40E5
:1002B000019604E02020071B291CF94001912E1C07
:1002C000A6400096101C191C80185941021C0B1CDA
:1002D0005F463740BC46019E4F463E4067463E4320
:1002E00002D02A1C02430B1C039898420BD802D15F
:1002F0000299914207D8029E039F921BBB41474639
:1003000000980743B846013CCDD2414652468B1A6D
:10031000DB08124CA34208D9059A0132D2B20592E9
:100320000126B2445746082FB5D140240598082825
:1003300004D042031A43049C22800024201C07B0EE
:100340003CBC90469946A246AB46F0BDC046C0466E
:100350000000000001000000D1160000FF1F000097
:1003600010B582B0041C0F4B1B78002B01D0002964
:100370000DD001A90C700C200B4B98470C200B4B97
:100380009847084B5C7001221A70002007E0054B6B
:100390005A781D20141B621E94416442204002B012
:1003A00010BDC0468800002021100000910F000001
:1003B000444B984233D006D8434B98420DD0434B20
:1003C00098421BD06FE0424B98424AD0414B984232
:1003D00058D0414B984266D132E0012965D00029BE
:1003E00004D0022906D0032906D001E03B4867E08B
:1003F000002065E03A4863E03A4861E0012956D0C0
:10040000002904D0022906D0032906D001E00320E8
:1004100056E0002054E0344852E0344850E00129CE
:1004200047D0002904D0022906D0032906D001E0D4
:100430002F4845E0002043E02E4841E02E483FE0B1
:10044000012938D0002904D0022906D0032906D07A
:1004500001E02A4834E0002032E0294830E0294811
:100460002EE0012929D0002904D0022906D0032931
:1004700006D001E0244823E0002021E023481FE0CB
:1004800023481DE001291AD0002904D0022906D0F2
:10049000032906D001E01F4812E0002010E01E48AA
:1004A0000EE01E480CE000200AE01D4808E01D4850
:1004B00006E01D4804E01D4802E01D4800E01D481C
:1004C0007047C0460010004200080042000C004285
:1004D00000180042001C0042001400420300040007
:1004E000030006000300070003001E0003001F00B6
:1004F0000300080003000A0003000B0003001000C3
:10050000030012000300130003000C0003000E00A0
:1005100003000F0003001600030018000300190079
:10052000030005000300010003000900030011009F
:1005300003000D000300170070B586B00C4A6B462F
:1005400070CA70C332CA32C3009E864206D00123ED
:100550009A0069465258824203D100E00023D8B283
:1005600003E00133062BF3D1002006B070BDC04676
:10057000A8310000F0B5474680B40C1C9046002816
:100580000CD1002A0DDD8F18094E0A4D3068211C50
:100590002B6898470134BC42F8D104E00120404266
:1005A00002E0002000E0404604BC9046F0BDC0469A
:1005B0004001002038010020F0B5474680B40E1CF1
:1005C000151C0138022810D8002A11D000240D4B28
:1005D00098460D4F43461868315D3B6898470028A0
:1005E00008DB0134A542F5D107E00120404205E0D7
:1005F000002003E00120404200E0201C04BC9046A3
:10060000F0BDC046400100203C010020F0B55F462F
:1006100056464D464446F0B48DB0051C0C1C161CC5
:100620002960081C784B984721680523CA0700D524
:10063000E2E022681C23970700D5DDE0734B196ABE
:10064000821C012797403A1C0A431A620BA9737F48
:100650000B700D30C7B2381C6D4B9847381C6D4B72
:100660009847707F00216C4B9847F37A6B71337D0C
:10067000AB71737DEB712F680397381C624B984701
:100680000D3000226B46DA8231688946F268924664
:10069000B37D98467368002B13D080225205934295
:1006A0002BD1F37D002B01D02A682AE03769C0B234
:1006B0005A4B9847011C381C6A461632584B9847CB
:1006C0001CE0F37D002B09D0102300933069B16941
:1006D0006A4616320023534FB8470FE031698B4604
:1006E000C0B24E4B9847011C1023009358466A46EF
:1006F000163200234B4FB84700E00020031E7BD189
:10070000D2E713691804FCD46B4616331B88039F89
:100710007B815146484601437268114347467B0737
:100720001943F37D002B01D104231943307D40048C
:10073000737D1B041843F27AB37A13431843338949
:10074000FF2B03D08022520411431843337F002B28
:1007500003D1354B1B689A0301D5802319432A68BE
:1007600013691F04FCD4039F78602A681369180476
:10077000FCD4039F39600AAB80221A7000225A70A1
:10078000DA709A70306A0690716A0791B26A0892BC
:10079000F66A099600271E1CF9B2BB0006AA9858F3
:1007A000002802D1201C214B9847411C05D03070F5
:1007B000000CC0B2311C1E4A90470137042FEBD108
:1007C0000023AB60EB602B61AB616B610022EB83BC
:1007D000AB832023EA542123EA542223EA5423231F
:1007E000EA542868084B9847041C1249124B984752
:1007F000A400124BE5500023181C0DB03CBC9046E1
:100800009946A246AB46F0BD390500000004004001
:1008100021100000910F0000610300003D10000056
:1008200085010000B101000000200041B10300007B
:10083000011100008D090000C90A000044010020D8
:1008400010B5021C0368C4791C20002C0ED0D2699C
:10085000120C0520002A09D11A691004FCD419834E
:100860000221DA68120C0A42FBD0002010BDC046FB
:1008700010B5031C046882791C20002A23D0DB6990
:100880009BB20520002B1ED1E3685A031BD52369B8
:100890001A04FCD42369DBB25A0711D09A0703D596
:1008A000022323821A200EE05A0703D50423238251
:1008B0001E2008E0DA0703D501232382132002E07B
:1008C000A3690B80002010BDF0B557464E46454643
:1008D000E0B4061C88461720002A4DD0F3791C206E
:1008E000002B49D0346823691904FCD492460027B0
:1008F0000125244A914620E0E268120C2A4204D1E4
:10090000012B2BD0013B002BF6D17B1C9BB2424626
:10091000D15D7279012A01D01F1C05E0BA1C97B283
:100920004246D35C1B021943301C174B9847534671
:10093000013B9BB29A46002B18D0E3681B0C2B425C
:10094000E3D14B46D8E7E268120C0A4208D1012BEA
:1009500008D0013B002BF6D100200DE012200BE067
:10096000002009E0122007E0002005E0E368990379
:10097000FAD4044B0221E6E71CBC90469946A246F5
:10098000F0BDC046FFFF000041080000F8B5800040
:100990004B4BC5582C6823691904FCD4E668360C07
:1009A000E3681B041B0E1E402123EB5C2022AA5C83
:1009B000171C1F40F20720D5EB691B0C1BD0AB693D
:1009C0001A78D2B2591CA9616979012904D15978E0
:1009D00009020A430233AB61D305DB0D2383EB69C4
:1009E0001B0C013B9BB2EB83002B06D1012323732D
:1009F0000223637301E001232373B30709D50223A4
:100A0000237300222323EA54F90702D5281CAA687D
:100A10009047730752D5EB699BB2002B4CD02369EA
:100A2000DBB2590725D09A0708D51A222223EA54A7
:100A3000226992B202231343238214E0590708D596
:100A40001E222223EA54226992B2042313432382F2
:100A500009E0DA0707D513222223EA54226992B269
:100A60000123134323827B0728D52B69281C984731
:100A700024E0A269D205D20DD3B269690B706B690B
:100A8000591C69616979012904D1120A5A706B698C
:100A900001336B61EB699BB2013B9BB2AB83002BD3
:100AA0000CD10423237300222223EA54BA0705D56C
:100AB000EB68281C984701E004232373F8BDC04667
:100AC000440100207047C046F0B50A4B1B78002B4C
:100AD0000CD1094F094E0A4D0024DE515A191460F9
:100AE0000433182BF9D10122024B1A708000024BFB
:100AF000C150F0BD8C00002090000020C50A00000D
:100B00004401002010B582B0041C68460549062245
:100B1000054B9847201C054B98476B46185602B06A
:100B200010BDC046C03100005D170000390500004F
:100B300008B5024B1B680020984708BD90000020B4
:100B400008B5024B5B680120984708BD9000002063
:100B500008B5024B9B680220984708BD9000002012
:100B600008B5024BDB680320984708BD90000020C1
:100B700008B5024B1B690420984708BD900000206F
:100B800008B5024B5B690520984708BD900000201E
:100B900030B5084B1C68084A00258021490206E050
:100BA000002C04D05460956013680B42FCD00138CF
:100BB000F6D230BD0000002010E000E07047C046D3
:100BC0000C4B1B68002B10D1EFF31083002B09D1C5
:100BD00072B6BFF35F8F0022074B1A700122074BDA
:100BE0001A7002E00022054B1A70024B1A6801329B
:100BF0001A607047A800002004000020AC0000200C
:100C0000084B1A68013A1A601B68002B09D1064B81
:100C10001B78002B05D00122044B1A70BFF35F8FA5
:100C200062B67047A8000020AC000020040000203D
:100C300008B507282BD88000174B1B589F468020EB
:100C4000000227E0154BD86824E0154B186A800590
:100C5000800F144BC340181C1CE0104B186919E09E
:100C60000E4B1B680220184014D00D491022CB688F
:100C70001A42FCD0094B1B685A070AD500200A4BC0
:100C80009847064B9B681B041B0C584302E000204E
:100C900000E0064808BDC046C8310000B000002092
:100CA0000008004000127A003D100000006CDC02D9
:100CB00070B50C4B1C6A0178857840780122104091
:100CC00080014026B44304432A40D001802294434B
:100CD000221C0243032001400902034802400A4348
:100CE0001A6270BD00080040FFFCFFFF07283DD8D6
:100CF00080001F4B1B589F46002038E01D4B196A8F
:100D000002220A431A62002031E01A4B996902223A
:100D10000A439A6100202AE0164B1A6992B2022116
:100D20000A431A82002022E0124B5A6992B2022131
:100D30000A439A8200201AE00F4B196802220A43E4
:100D40001A601A680D4B1A400A4B9A84191C10221B
:100D5000CB681A42FCD0084A9168064BD9625168A8
:100D60009962126892B29A84002000E017207047BE
:100D7000E831000000080040B00000207FFF0000C4
:100D800030B585B0C222D200134B9A60134B5A681B
:100D90001E218A435A6003A80024447001258570EF
:100DA00004700F4B984706200E4B98470E4B984700
:100DB0000E4B1C725C729C7201956A46547006233D
:100DC00013701472547200206946094B9847002032
:100DD000084B984705B030BD000800400040004176
:100DE000B10C0000ED0C0000F90D00000004004003
:100DF0001D0E0000CD0E0000064B996908220A4323
:100E00009A610122044B1A70191C0B681342FCD121
:100E10007047C04600040040000C0040F8B5061CB6
:100E2000071C0D782D0205434B78002B02D0802340
:100E3000DB021D434B7A002B02D080231B031D4392
:100E40004C68012C17D9631E1C420FD1022C06D905
:100E50000223002201325B009C42FBD800E000220A
:100E60001702374380235B031D4304E02702374307
:100E700080239B021D430B7A002B02D080239B030F
:100E80001D430E4A13681904FCD40D4B98470D4BB3
:100E90001E700A490B681A04FCD4084B9F601A1C88
:100EA00013681904FCD4054B5968802252020A4089
:100EB00015435D60044B9847F8BDC046000C0040E8
:100EC000C10B0000080C0040010C000010B5041C10
:100ED0000A4A13681904FCD4094B9847094B1C7043
:100EE000064A13681904FCD4044B59688022520244
:100EF0000A435A60044B984710BDC046000C00409E
:100F0000C10B0000040C0040010C000070B5041C73
:100F1000184A13681904FCD4174B9847174B1C70D8
:100F2000144A13681904FCD4124E7068C004C00E31
:100F3000134B9847051C114B1C707668F602F60F90
:100F4000104B1C700B4A13681904FCD4094B9C68A5
:100F50002402240C0C4B9847002E07D1012C07D9F2
:100F6000281C211C094B9847051C01E00134E54071
:100F7000281C70BD000C0040C10B0000040C004098
:100F8000310C0000080C0040010C0000311600007C
:100F900010B5041C064B9847064B1C70064B19688D
:100FA000090C8022D2010A435A80044B984710BD95
:100FB000C10B0000020C0040000C0040010C0000BE
:100FC00010B5041C104B9847104B1C70104B186840
:100FD0000001000F59880F4A0A405A801A68120C03
:100FE0000D490A405A80191C8022D2010B681B0C43
:100FF0001342FBD1064B01025888064A02400A43BD
:101000005A80064B984710BDC10B0000020C0040EF
:10101000000C0040FFF0FFFFFFBFFFFF010C0000CE
:1010200010B50C7824020443024B9847A4B2024B3B
:101030005C8010BDC10F0000000C004010B5041C06
:10104000064B9847064B1C70064B1C682401240F66
:10105000054B9847201C054B984710BDC10B00005D
:10106000020C0040000C0040010C00000D0F0000BD
:1010700030B5D378002B1FD11378802B04D01B06FA
:1010800080246402234300E0002354780225AC430B
:101090000AD19478002C03D18024A402234302E0D7
:1010A000C024E402234341605478013CE4B2012CA3
:1010B00004D8124C234001E0416000230D042D0CA4
:1010C000A024E4052C431C4384620D0CD024240688
:1010D0002C431C438462D478002C0DD15C0305D5CD
:1010E0009378012B01D1816100E041615378013B8C
:1010F000DBB2012B00D8816030BDC046FFFFFBFF93
:1011000008B5031C0A1CC1090020002903D1580995
:10111000C001044940181F210B4001219940024B96
:10112000984708BD00440041711000007047C04658
:1011300008B5044B9847044B9847044B9847044B19
:10114000984708BD810D0000BD0B00002D11000067
:101150002D110000FEE7C04610B5194B194A9A42FE
:1011600003D0194B164A9A4204D3184B184A9A4294
:1011700010D31BE0174B14480330C01A800801300D
:10118000800000230E490F4AD458CC5004338342C8
:10119000FAD1EAE70E4B1A1D0C490331891A890866
:1011A00089005218002102C39342FCD10A4B7F21CF
:1011B0000A4A8A439A600A4B98470A4B9847FEE7C7
:1011C00000000020443300006C000020A801002033
:1011D0006C0000200400002000ED00E00000000092
:1011E00015170000B9150000064B1B68002B02D133
:1011F000054A044B1A60034A136818181060181C3B
:101200007047C046C4000020A821002001204042B1
:101210007047C04680239B014B6000207047C0464A
:10122000012070470020704770B582B0051C0E1C6D
:1012300000226B46DA80064C281C69460631A0471E
:101240000028F9D16B4606331B88337002B070BD9D
:101250007108000070B5061C0D1C034C301C291CC5
:10126000A0470028FAD170BD4108000070B58CB0CD
:101270008023DB05009300230193FF2269460A8146
:101280008B72CB7201220A754A758B75CB750693EA
:101290000B774B77E1235B020493C4239B030393F7
:1012A00001235B4208930993284B0A93284B0B9325
:1012B000284E294D294C301C291C6A46A04700287D
:1012C000F9D1244C264B1C60264A274B1A60274A2A
:1012D000274B1A60201C20496A46204B9847254E10
:1012E000336898680021244DA84733685868002166
:1012F000A8472568281C214B98471F231840012325
:101300008340181C1E4B1860226813691904FCD412
:101310002A68022313432B600E4B1B681A691104C1
:10132000FCD45968802252020A435A600121094ABA
:10133000D1711A691104FCD45968802292020A43BF
:101340005A600122034B9A710CB070BD03001E005D
:1013500003001F0080010020000C00420D06000069
:1013600040010020551200003C010020291200001D
:101370003801002008000020ED190000050B0000D6
:1013800000E100E010B5041C034B984782B203480B
:10139000211C034B984710BD2D1B0000800100202D
:1013A000C908000070B58CB08023DB0500930023D2
:1013B0000193FF2269460A818B72CB7296229201B9
:1013C000049201220A754A758B75CB7506930B77CB
:1013D0004B7780235B030393244B0893244B09939F
:1013E00001235B420A930B93224E234D234C301C66
:1013F000291C6A46A0470028F9D11E4D2C68201CE4
:101400001F4B98471F23184001238340181C1D4B76
:1014100018602A6813691904FCD422680223134354
:101420002360144B1B681A691104FCD4596880228C
:1014300052020A435A6001210E4AD1711A691104FD
:10144000FCD45968802292020A435A600122094B57
:101450009A71094C201C0C4B98470C490C4B98472F
:101460000423637301200CB070BDC0460300280044
:10147000030029005C010020001800420D06000056
:10148000050B000000E100E039050000C514000074
:10149000C90A000020280ED03E2802D00D2804D111
:1014A00009E00122044B1A7005E0044A1378591C24
:1014B0001170034AD05470472D0100202C010020E8
:1014C000C800002010B582B00C4BDB685A0312D55F
:1014D0000A4B1A690623134002D0084A13820AE015
:1014E000064B9869C0B26C46E0710734044B9847CC
:1014F000201C044B984702B010BDC04600180042A3
:1015000095140000CD18000070B5051C114E301C5C
:10151000114CA047021C301C0021104B98470022A0
:101520000F4B1A70281CA0470E4C82B2201C291C9D
:101530000D4B9847201C0D210C4B98470A200C4B53
:1015400098470C4A1378002BFCD00022094B1A70E4
:1015500070BDC046C80000202D1B0000E117000030
:101560002C0100205C010020C90800004108000097
:10157000910B00002D01002030B583B001AC012398
:1015800063700022A27023702120211C084DA847FF
:101590002220211CA8472320211CA847054B0222FA
:1015A0009A6104229A6108229A6103B030BDC04654
:1015B000610100008044004170B50F4B98470F4B0C
:1015C000984701220E4B1A70BFF35F8F62B60D4B26
:1015D00098470D4B98470D480D4B98470D480E4BBB
:1015E00098470E4E0E4D0F4C301CA847201C0E493C
:1015F0000E4B9847F8E7C046311100006D1200000D
:1016000004000020A5130000791500000832000036
:10161000D919000040320000851300005C32000040
:101620000915000064320000C8000020CD18000039
:10163000002934D00123002210B488422CD3012485
:101640002407A14204D2814202D209011B01F8E71A
:10165000E400A14204D2814202D249005B00F8E7D3
:10166000884201D3401A1A434C08A04202D3001BFF
:101670005C0822438C08A04202D3001B9C08224332
:10168000CC08A04202D3001BDC082243002803D070
:101690001B0901D00909E3E7101C10BC70470028A2
:1016A00001D00020C04307B4024802A140180290B4
:1016B00003BDC046190000000029F0D003B5FFF7B4
:1016C000B9FF0EBC4243891A1847C0467047C0464E
:1016D0009C460304F0B51B0C17043F0C150C1E1C94
:1016E000041C000C7E436B4347434543FB18300CFE
:1016F0001818874202D980235B02ED18030CED18FD
:1017000063465C434A433604360CA1180004801932
:101710004919F0BD70B50D4E0D4D0024AD1BAD1037
:1017200005D0A300F35801349847A542F9D101F040
:10173000F9FD084E084D0024AD1BAD1005D0A300E7
:10174000F35801349847A542F9D170BD30330000F9
:10175000303300003033000034330000F0B50F2A7E
:1017600035D9031C0B439C0735D1161C103E360996
:101770003501451910350C1C031C27681F6067686C
:101780005F60A7689F60E7681034DF601033AB428A
:10179000F3D1731C1B01C518C9180F231340032B69
:1017A0001BD91C1FA4080134A4000023CE58EE50FE
:1017B0000433A342FAD1ED18C91803231A4005D007
:1017C0000023CC5CEC5401339342FAD1F0BD051CEC
:1017D000002AF5D1FAE7051CF2E71A1CF8E7C04623
:1017E000F0B54F464646C0B483B0830752D0541E6E
:1017F000002A4AD0CEB2031C032503E0621E002C4F
:1018000043D0141C01335A1E16702B42F6D1032C00
:1018100033D9FF250D402A0215432A0415430F2C06
:101820001AD9271C103F3F09B9463F01B846102777
:10183000FF18BC4646461A1C664415605560956004
:10184000D5601032B242F8D14F4601373F010F2226
:10185000DB191440032C10D9271F1E1DBF08019649
:10186000BE00B446019E1A1C664420C2B242FCD19E
:101870000137BF000322DB191440002C05D0C9B288
:101880001C1919700133A342FBD103B00CBC904664
:101890009946F0BD031C141CB9E7C0460EB410B540
:1018A000041C83B0002804D08369002B01D100F010
:1018B000EBFC06ABA168201C059A019300F080F9AF
:1018C00003B010BC08BC03B01847C0460FB410B535
:1018D0000B4B82B01C68002C05D0A369002B02D1F1
:1018E000201C00F0D1FC05ABA168201C049A0193D8
:1018F00000F066F902B010BC08BC04B01847C0463E
:101900000800002070B5061C0D1C002802D082695A
:10191000002A47D0B468A3891A073CD52369002B55
:1019200039D02B78002B0ED0A368013BA360002B8D
:1019300016DB2B782268137023680133236001358E
:101940002B78002BF0D1A368013BA360002B2CDB8C
:1019500022680A2313702368013323600A2019E0E8
:10196000A269934209DB2B782268137023681A78E6
:101970000A2AE2D1301C0A2101E02978301C221CFD
:1019800000F074FA431C5A425341DBB2002BD6D00C
:101990000120404270BD301C211C00F0D9FA002803
:1019A000BFD0F5E700F070FCB4E7A269934206DB14
:1019B00022680A23137023681A780A2ACCD1221CC1
:1019C000301C0A2100F052FA431C5A425341DBB248
:1019D000002BDDD10A20DDE708B5034B011C186898
:1019E000FFF790FF08BDC0460800002008B54A4236
:1019F0004A4180235200DB0000F002F808BDC046D7
:101A0000F0B5474680B41F1C434B041C1D68884634
:101A1000161C002D02D0AB69002B51D03F4B9C42CD
:101A200054D03F4B9C4253D03E4B9C4261D0022E3F
:101A300061D8002F5FDB281C211C00F0A1FBA289CC
:101A400000236360A361130623D483239A43A281F6
:101A5000022E28D04346002B3CD0012E13D0324B0F
:101A600092B2AB6243462360236167610020130793
:101A700006D503231A4053425A4152421740A760E9
:101A800004BC9046F0BD01231A437B42A281A361AE
:101A9000E5E7281C216900F0B7FFA28983239A4358
:101AA000A281022ED6D1002002231A430023A36074
:101AB000231C4733236023610123A2816361DFE795
:101AC000281C00F0E1FB154B9C42AAD16C68AEE7E4
:101AD000AC68ACE7002F01D18027FF00381C00F074
:101AE000EBFE8046002809D0A28980231A43A281F8
:101AF000B3E7EC689BE701204042C1E78020C000CB
:101B000000F0DAFE8046002803D10120A28940427D
:101B1000CAE78027FF00E7E708000020DC3200006A
:101B2000BC3200009C320000112200000023C25C85
:101B30000133002AFBD1581E7047C046936810B588
:101B4000013B9360002B06DB1368581C1060FF20DC
:101B50001970084010BD9469A34202DBCBB20A2B76
:101B6000F2D100F083F9F5E7F8B54F464646C0B428
:101B700081468846171C1E1C00250024002B04D11A
:101B80000EE00134251EB5420AD0795D4846424632
:101B9000FFF7D4FF431CF4D10CBC90469946F8BD26
:101BA0000020F9E7936810B5141C002B02D1536094
:101BB000002010BD00F05AFC0023A3606360F8E72A
:101BC000F0B55F4656464D464446F0B49FB004908B
:101BD0008B46171C0593002803D08269002A00D188
:101BE00009E1934B9B4500D10BE1924B9B4500D102
:101BF0000BE1914B9B4500D10BE159468B891A07AC
:101C000000D4ECE00B69002B00D1E8E006AD002326
:101C10006B618A4920236B76894E3023AB768946E7
:101C20003B783C1C002B0DD0252B02D10AE0252B44
:101C300070D001342378002BF9D1E21B9046414645
:101C400000296CD12378002B78D001225242002346
:101C50006A60432201342B60EB60AB60AB54AB6530
:101C6000012707E0801B3B1C29688340181C0843A0
:101C7000286001342178301C052200F031FE002854
:101C8000F0D12B68221CD90602D5202043216854AC
:101C9000190702D52B204321685421782A2900D125
:101CA0006FE00B1C303B092B0BD8EA689100013424
:101CB0008A18217852009A180B1C303B092BF5D951
:101CC000EA602E2946D04846032200F009FE00288B
:101CD00008D04A46801A40238340181C2B680134E0
:101CE00018432860217857480622671C297600F09F
:101CF000F7FD002860D0544B002B00D08DE0059BF1
:101D0000072207339343083305936A69131C53442E
:101D10006B6185E7E31B98464146002992D0049801
:101D200059463A1C4346FFF71FFF013006D06A6947
:101D3000131C43446B612378002B86D159468B8951
:101D40005A0649D468691FB03CBC90469946A246E1
:101D5000AB46F0BD61782A291DD000236B600B1CB7
:101D6000303B0134092BAED80022910001348A188F
:101D7000217852009A180B1C303B092BF5D96A6068
:101D8000A1E70599081D0968059000290EDBE960A7
:101D90000134517895E7059BA01C1A1D1B6805921C
:101DA0006B60002B23DBA178041C8CE74942E960BF
:101DB00002210B432B60EBE705AB00930498291C31
:101DC0005A46224B00F0D6FF8246514601319CD143
:101DD00059468B895A06B5D501204042B3E704988D
:101DE000594600F0B5F8002800D10FE7F4E70123C9
:101DF0005B426B60D7E700F047FA0D4B9B4500D084
:101E0000F3E604994B689B46F7E6049B9A68934671
:101E1000F3E6049AD1688B46EFE605AB009304988D
:101E2000291C5A46094B00E000BF8246CDE7C04658
:101E3000DC320000BC3200009C3200009032000016
:101E4000883200009432000000000000691B00008E
:101E500038B5131C044A051C0C1C1068291C221CD4
:101E6000FFF7AEFE38BDC0460800002070B5051C67
:101E70000E1C141C002802D08169002947D02B4B6E
:101E80009C4249D02A4B9C4248D02A4B9C4247D086
:101E9000A269A389A260190722D52269002A1FD04E
:101EA000FF231E40616923689A1A8A4226DA0132AA
:101EB000A1680139A160591C21601E7063699342B9
:101EC00006D0A389301CD90701D50A2E00D070BDD9
:101ED000281C211C00F054F9002823D1301CF6E7FF
:101EE000281C211C00F034F800281BD1FF23226994
:101EF0001E40616923689A1A8A42D8DB281C211C7B
:101F000000F03EF900280DD123680122D0E700F04F
:101F1000BBF9064B9C42B5D16C68B9E7AC68B7E732
:101F2000EC68B5E701204042D1E7C046DC32000052
:101F3000BC3200009C32000008B50A1C0349031C97
:101F40000868191CFFF792FF08BDC0460800002072
:101F50003B4B70B51D68061C0C1C002D02D0A869F7
:101F6000002844D0374B9C4247D0374B9C425AD034
:101F7000364B9C4259D0A589ABB219070DD52269C1
:101F8000002A15D0D90721D560690023A3604342F8
:101F9000A3610020002A21D070BDDA0647D558077A
:101FA0002DD4226908231D43A581ABB2002AE9D1B3
:101FB000A02080008021184089008842E2D0301C97
:101FC000211C00F027FCA3892269DBE70021980788
:101FD00000D46169A1600020002ADDD1A38919061F
:101FE000DAD5402213430120A3814042D4E7281CC4
:101FF00000F04AF9134B9C42B7D16C68BBE7616BA8
:10200000002909D0231C4433994203D0301C00F02E
:10201000FBFCA58900236363242322699D430023DD
:1020200063602260BEE7AC68A5E7EC68A3E709231C
:10203000336040231D430120A5814042ACE7C046E8
:1020400008000020DC320000BC3200009C3200009E
:10205000F0B5474680B48B8980460D1C190734D4EF
:102060006A68002A52DDEC6A002C2AD04146002220
:102070000E680A60DA044DD56A6D5F0706D5696897
:102080006B6B521A002B01D02F6CD21B296A404671
:102090000023A047411C48D000236B602969AB890D
:1020A0002960DA044BD4696B43461E60002908D0CE
:1020B0002B1C4433994202D0404600F0A5FC00237B
:1020C0006B63002004BC9046F0BD2E69002EF8D052
:1020D0002F680022BC1B2E60990700D16A69AA6094
:1020E000002C04DCEDE73618241A002CE9DD40460C
:1020F000296A321C231CAF6AB8470028F3DCAA897E
:10210000402313430120AB814042DBE72F6C002FBB
:10211000A9DCD6E700224046296A0123A047021C19
:10212000431C17D0AB89EC6AA7E742461368002B23
:1021300007D16B602F69AB892F60D904B3D568656F
:10214000B1E71D2B01D0162B15D100236B602B6935
:102150002B60A8E747463B68002BE3D01D2B06D039
:10216000162B04D0A98940230B43AB81AAE7414633
:102170000E600020A6E7AA8940231343AB81A1E7A4
:102180000A6938B5051C0C1C002A11D0002802D0A1
:102190008369002B13D00F4B9C4215D00E4B9C42F1
:1021A00014D00E4B9C4213D00C22A35E002B01D105
:1021B000002038BD281C211CFFF74AFFF9E700F07A
:1021C00063F8044B9C42E9D16C68EDE7AC68EBE73F
:1021D000EC68E9E7DC320000BC3200009C32000011
:1021E00008B5011E04D0054B1868FFF7C9FF08BDEC
:1021F000034B0449186800F0E7FAF8E708000020EC
:1022000080320000812100000020704700207047CC
:10221000F8B5061C4836071C002E14D07568B46843
:10222000013D0DD4A389012B07D90E22A35E0133F2
:1022300003D0381C211CFFF7A3FF6834013DF1D205
:102240003668002EEAD1F8BD70B54B1E68255D4397
:102250000E1C291C743100F01FFC041E09D0002341
:10226000036046602A1C0C30A06068320021FFF732
:10227000B7FA201C70BDC04608B5024B1868FFF7BE
:10228000C7FF08BD80320000F0B54D465F46564698
:102290004446F0B4836983B0051C002B69D1836484
:1022A000C3640365384B394A1B688262984267D021
:1022B000281C00F075F86860281C00F071F8A86010
:1022C000281C00F06DF86E680024E8600423301CC0
:1022D000B38134607460B4607466F4813461746195
:1022E000B461002108225C30FFF77AFA284B294FAD
:1022F0009A467362284B36629946B362274B37631E
:10230000F362AE6898460923B381301C0123F38140
:1023100034607460B460746634617461B4610021C7
:1023200008225C309B46FFF75BFA534673624B46CC
:10233000B3624346F36236623763EE681223B381B9
:10234000301C0223F38134607460B46074663461BD
:102350007461B4615C3000210822FFF741FA5346F2
:1023600073624B46B3624346F3625B463662376341
:10237000AB6103B03CBC90469946A246AB46F0BD6B
:102380000123836194E7C0468032000011220000DF
:10239000C92B0000592C0000F52B00002D2C00004B
:1023A000214B70B51D68061CA96900292AD0483543
:1023B0006B68AC68013B03D51FE06834013B1CD35C
:1023C0000C21625E002AF8D101235B420025E381E3
:1023D000201C0123A38165662560A56065602561D9
:1023E0006561A5615C3000210822FFF7F9F965639A
:1023F000A563A564E564201C70BD2B68002B05D087
:102400001D1CD5E7281CFFF73FFFD0E7301C042137
:10241000FFF71AFF2860002801D0051CC8E70C232D
:1024200033600020E8E7C046803200007047C046B5
:102430007047C0467047C0467047C04608B5034B5A
:102440000349186800F09EF908BDC0460800002046
:102450000922000008B5034B0349186800F092F9FF
:1024600008BDC046080000200D220000F0B5564609
:1024700044465F464D46F0B485B0039090680C1C0E
:102480009246002824D08B89190729D52269002A71
:1024900026D057463E68B34698072ED5B649002643
:1024A00000258846002D65D0216A2B1E434500D9A2
:1024B000B14B0398321CA76AB847002800DC80E0C3
:1024C0005146896836182D1A5246081A9060E9D18B
:1024D000002005B03CBC90469946A246AB46F0BDF4
:1024E0000398211CFFF734FD002800D03BE157463C
:1024F0003E68A389B3469807D0D4DE0768D5002686
:1025000000270196B1460025002D2AD0019E002EFD
:1025100000D1AFE0B846AF4200D9A8462068216993
:102520004646A2686369884204D9D218029290454F
:1025300000DDF0E0984500DA80E0A66A0398216AA1
:102540004A46B047061E3CDDBF1B00D185E0504621
:102550008068B144AD1B5146861B8E60B8D0002DFB
:10256000D4D15B4608261A68B344002691465D68BC
:102570000196C9E75A460823166855689B4491E7B7
:1025800020682369984204D86669B146B54200D3F1
:10259000ADE0A946454500D9C14601994A4600F03B
:1025A000E1F92668A0684946321C431A4A44A360F0
:1025B0002260002B40D10398211CFFF7E1FD002889
:1025C0003AD0A289402313430120A381404280E7EF
:1025D0000026002501965F46002D28D0A0688021A6
:1025E000890080460B42CBD085423FD39022D20057
:1025F00013424CD12068C14601994A4600F0B2F915
:10260000A06822684146431AA360131C4B44236010
:102610002A1C5046019E8068B618AD1A5146821A8F
:1026200001968A6000D153E7A389002DD6D13E6878
:102630007D6801960837CFE74A46EAE749464246B1
:1026400000F090F9A06822684146431AA360131C69
:1026500043442360BF1B00D079E70398211CFFF798
:102660008FFD0028ADD10023019370E7A8462068B4
:10267000A946C1E748460A212A1C00F031F9002882
:102680006DD0471C012648463F1A019642E7626911
:102690002169500082182668D00F8218761A5210CD
:1026A0009146321C01325219B346914543D29146AC
:1026B000580543D50398111C00F0EEF98046002818
:1026C00054D05A462169FFF749F8A2892B4B134091
:1026D00080221343A38140464A465E462061931BF5
:1026E000584420606261A846A360A94684E7244953
:1026F000281E884200D9081C494600F0F5FC4B46CC
:102700004343216A0398019AA66AB047002800DC77
:1027100057E7021C7DE7494600F024F92268029E33
:10272000039893192360211CFFF72AFD002800D08D
:1027300047E7029E08E74A465805BBD4039800F0D5
:1027400007FA80460028C6D10398216900F05CF999
:10275000A2898023039F9A430C233B6032E7012622
:102760006F1C0196D6E601204042B2E6039E0C2380
:102770003360A28926E7C04600FCFF7F7FFBFFFF96
:10278000FFFFFF7FF0B5474680B4071C48378846F7
:102790000026002F13D07D68BC68013D0CD4A389AE
:1027A000012B06D90E22A35E013302D0201CC047A4
:1027B00006436834013DF2D23F68002FEBD1301C54
:1027C00004BC9046F0BDC046F8B54F464646C0B47E
:1027D000061C4836804689460027002E14D07568AE
:1027E000B468013D0DD4A389012B07D90E22A35E45
:1027F000013303D04046211CC84707436834013DDC
:10280000F1D23668002EEAD1381C0CBC90469946AD
:10281000F8BDC046F0B58B8991B0051C0C1C9A0719
:1028200033D40E22895E002922DB01AA00F004FCC9
:1028300000281CDB029BF0273F021F401C4B802618
:10284000FF187B425F41F600281C311C00F024F980
:10285000002814D0174BAB62A28980231343A381B5
:10286000206020616661002F16D111B0F0BDA389F0
:10287000002740261A06E7D48026F600E4E7A3895D
:102880009A05F2D402221343A381231C4733236009
:10289000236101236361E8E70E23E15E281C00F059
:1028A000DFFB0028E1D0A28901231343A381DCE7E9
:1028B00000E0FFFF1122000008B5034B011C18685F
:1028C00000F0EAF808BDC0460800002008B5034B38
:1028D000011C186800F098F808BDC04608000020E8
:1028E000F0B5CCB2830737D0531E002A1FD0027830
:1028F000A2421DD0032505E0002B18D00278013B31
:10290000A24215D001302842F6D1032B11D8002B5A
:102910000DD00278A2420BD0421CC31804E0013251
:10292000511E0978A14203D0101E9842F7D1002011
:10293000F0BDFF2631400E0231430E04074D0E4319
:102940000268074F7240D11991432942DFD1043BFD
:102950000430032BF4D8DAE7131CD6E7808080809C
:10296000FFFEFEFEF0B588420ED98D18A8420BD2AC
:102970008618531E5142002A05D06A18D45C72187A
:10298000D454013BF9D2F0BD0F2A09D8051C002A06
:10299000F9D00023CC5CEC5401339342FAD1F2E736
:1029A000031C0B439C072AD1161C103E3609350127
:1029B000451910350C1C031C27681F6067685F6091
:1029C000A7689F60E7681034DF601033AB42F3D133
:1029D000731C1B01C518C9180F231340032B10D9F2
:1029E0001C1FA4080134A4000023CE58EE50043369
:1029F000A342FAD1ED18C91803231A40C7E7051CF2
:102A0000C7E71A1CC3E7C04630B500290FD0043908
:102A10000B68002B1EDB1F4B1A68002A05D08A4268
:102A200009D908680C18A24216D04A60196030BD56
:102A30008B4203D81A1C5368002BF9D1156854191E
:102A40008C4213D00FD808680C189C421AD04B60E7
:102A50005160ECE7C918DEE7146852680019086095
:102A60004A601960E3E70C230360E0E709686D182A
:102A7000511915609942DAD119685B686D181560B3
:102A80005360D4E71C685B68001908604B605160B4
:102A9000CDE7C04630010020F8B5CD1C03239D438F
:102AA0000835071C0C2D27D20C25A94226D8274E05
:102AB0003368002B0AD019684A1B04D440E021680F
:102AC0004A1B1FD5231C5C68002CF8D171680029B3
:102AD00030D0381C291C00F065F8431C0ED0C41CF3
:102AE00003239C43A04205D0211A381C00F05AF859
:102AF000013003D025600AE0002DD6DA0C233B60BC
:102B000000200DE00B2A0CD92260A4182560201C9F
:102B10000B300722231D9043C31A01D05A42E250C2
:102B2000F8BD9C4202D062685A60F0E71A1C32601D
:102B30001C1CECE7381C002100F034F87060C8E77A
:102B40000B2A01D85A68F2E71C1CDDE7300100208F
:102B5000F8B5061C0C1C151C00291DD0002A17D026
:102B600000F0A4FA854201D8201CF8BD301C291CB5
:102B7000FFF792FF071E09D0211C2A1CFEF7EEFD6D
:102B8000211C301CFFF740FF3C1CEDE70024EBE765
:102B9000FFF73AFF0024E7E7111CFFF77DFF041C55
:102BA000E2E7C04638B5074C0023051C081C23602B
:102BB000FEF71AFB431C00D038BD2368002BFBD066
:102BC0002B60F9E7A401002038B50C1C0E25495FE5
:102BD00000F076FA002803DB626D1318636538BDD8
:102BE000A289024B1340A381F9E7C046FFEFFFFF24
:102BF00000207047F8B50C1C8989051C171C1E1C89
:102C0000CB0506D50E23E15E0022022300F03AFA3E
:102C1000A189054B281C1940A1813A1C0E23E15EB5
:102C2000331C00F0E3F9F8BDFFEFFFFF38B50C1CD3
:102C30000E25495F00F026FAA289431C05D08023A7
:102C40005B011343A381606538BD024B1340A38130
:102C5000FAE7C046FFEFFFFF08B50E23C95E00F09C
:102C6000D9F908BDF0B54E4657464546E0B4914601
:102C7000061C1F1C08980A698B680C1C804693422E
:102C800000DA131C49460B604322A25C002A01D0E3
:102C900001330B602268930604D54846036802336B
:102CA000036022680623134220D14846E168006889
:102CB0000B1A002B1ADD192109198A46002506E096
:102CC0004846E26800680135131AAB420DDD301C3E
:102CD000391C52460123C0470130F1D10120404246
:102CE0001CBC90469946A246F0BD22684323E35C93
:102CF000591E8B41910626D4221C301C391C4332AC
:102D0000C0470130EAD04B4620681A6806230340CA
:102D10000020E1688146042B26D0A26823699A42EC
:102D20001DDC1A344946A2460024002903DC19E0C0
:102D300001344C4516D0301C391C52460123C04783
:102D40000130F5D1CAE7E11840313020C8705A1C73
:102D50004521615CA21840320233D170CCE7D31A0E
:102D60009944DEE70020BBE78A1AD343DB171A40F9
:102D70009146D2E7F0B5444656464D465F46F0B41C
:102D80000C1C9A46237E87B0433191468046109AA8
:102D900003916E2B54D015D8632B00D1D0E000D90D
:102DA000BAE0002B59D0582B00D0EDE045216354F8
:102DB0008C4923688B4619061AD51168081D1060C6
:102DC0000D681BE0732B00D1CFE000D97FE06F2BA3
:102DD00000D1E0E0702B00D0D6E0216820230B4327
:102DE00023604521782060547F498B461906E4D43E
:102DF0005906E2D51168081D0D881060DA0702D562
:102E00002022134323601027002D03D121682023A3
:102E10009943216000224323E2546368A360002B9E
:102E20005BDB2168042291432160002D58D1039E71
:102E3000002B54D1082F64D003998B1B23610FE022
:102E40002368190600D589E0590600D486E0136886
:102E5000191D11601B6862691A800023039E23619B
:102E6000534600934046211C05AA4B46FFF7FAFE45
:102E700001301FD040464946321C2369D0470130FB
:102E800018D02168E068059B89071CD5C21A002A62
:102E900019DD261C1936002505E0E068059B013583
:102EA000C21AAA420FDD40464946321C0123D047D0
:102EB0000130F2D10120404207B03CBC9046994617
:102EC000A246AB46F0BD9842F6DA181CF4E7752B23
:102ED00061D0782B58D1236883E7002D00D10025DD
:102EE000039E281C391CFEF7E7FB5A46535C013E43
:102EF000281C3370391CFEF79BFB051EF1D1082FEF
:102F00009AD12368DB0797D561682269914293DCE7
:102F1000013E302333708FE7642B01D0692B33D10E
:102F20002368190601D459064CD41368191D1B686F
:102F300011601D1C002B4CDB2A4B0A279B466CE7BB
:102F40001368261C191D11601A684223E2540123DC
:102F50004236236100224323E25481E71368191D9E
:102F600011601B6862691A6077E71368191D1160A8
:102F70001E68301CFEF7DAFD63682061984201D9B3
:102F80002361181C6060E5E74222A354261C01233C
:102F900042362361DEE72368190601D459060CD4B2
:102FA0001368191D1D6811600E4A237E9346082779
:102FB0006F2B00D12EE70A272CE71368191D11602B
:102FC0001D88F1E71368191D116000229D5E2B1CFE
:102FD000B0E743232D22E254024B6D429B460A2761
:102FE0001BE7C046FC3200001033000070B5084CEF
:102FF000061C0025081C111C1A1C2560FDF7DCFAB4
:10300000431C00D070BD2368002BFBD03360F9E770
:10301000A401002038B5074C0023051C081C2360C0
:10302000FEF7F4F8431C00D038BD2368002BFBD01A
:103030002B60F9E7A401002038B5084C0023051CDB
:10304000081C111C2360FEF7E5F8431C00D038BDB6
:103050002368002BFBD02B60F9E7C046A4010020B9
:1030600038B5074C0023051C081C2360FEF7D8F870
:10307000431C00D038BD2368002BFBD02B60F9E740
:10308000A401002070B5084C061C0025081C111C6A
:103090001A1C2560FEF7C6F8431C00D070BD2368DB
:1030A000002BFBD03360F9E7A401002004390B6842
:1030B000181F002B00DB7047C8581B18181FFAE7B1
:1030C00070B5084C061C0025081C111C1A1C256034
:1030D000FDF750FA431C00D070BD2368002BFBD0D5
:1030E0003360F9E7A4010020002941D010B4041C8A
:1030F0004C40A44601230022002900D54942002863
:1031000000D5404288422CD301242407A14204D296
:10311000814202D209011B01F8E7E400A14204D276
:10312000814202D249005B00F8E7884201D3401A8D
:103130001A434C08A04202D3001B5C0822438C08AF
:10314000A04202D3001B9C082243CC08A04202D319
:10315000001BDC082243002803D01B0901D0090909
:10316000E3E7101C6446002C00D5404210BC7047B9
:10317000002806D003DB0020C043400801E0802087
:10318000000607B4024802A14018029003BDC046E1
:103190003DE5FFFF0029EBD003B5FFF7A7FF0EBC0D
:1031A0004243891A1847C04600080042000C0042FA
:1031B000001000420014004200180042001C0042AF
:1031C0000708090A0B0C0000440C00008E0C0000DC
:1031D0008E0C00003E0C00003E0C00005A0C00005B
:1031E0004A0C0000600C0000180D00006C0D00007F
:1031F0006C0D0000F80C00000A0D0000280D000006
:10320000FC0C0000380D00000D0A544849532059A9
:103210004F552043414E20534545206D65616E73E7
:1032200020535444494F20436F6E66696775726539
:103230002070726F7065726C792121210D00000081
:103240000D0A436F6E66696775726174696F6E739C
:1032500020444F4E452121210D0A000030313043DA
:10326000000000000D0A526563696576656420669A
:10327000726F6D2053544E3A2025730D0A000000E2
:103280000C00002043000000232D302B2000000004
:10329000686C4C006566674546470000000000000A
:1032A000000000000000000000000000000000001E
:1032B000000000000000000000000000000000000E
:1032C00000000000000000000000000000000000FE
:1032D00000000000000000000000000000000000EE
:1032E00000000000000000000000000000000000DE
:1032F0000000000000000000000000003031323308
:1033000034353637383941424344454600000000E1
:10331000303132333435363738396162636465664B
:1033200000000000F8B5C046F8BC08BC9E467047D7
:1033300025010000F8B5C046F8BC08BC9E467047A1
:04334000F900000090
:10334400401F0000010000000C00002000000000ED
:10335400DC320000BC3200009C320000000000009F
:1033640000000000000000000000000084320000A3
:103374000000000000000000000000000000000049
:103384000000000000000000000000000000000039
:103394000000000000000000000000000000000029
:0C33A4000000000000000000000000001D
:04000003000011598F
:00000001FF
