:1000000018220020511100004D1100004D11000078
:1000100000000000000000000000000000000000E0
:100020000000000000000000000000004D11000072
:1000300000000000000000004D1100004D11000004
:100040004D1100004D1100004D1100004D11000038
:100050004D1100004D1100004D110000E90A000093
:10006000F90A0000090B0000190B0000290B000021
:10007000390B00004D1100004D1100004D11000022
:100080004D1100004D1100004D1100004D110000F8
:100090004D1100004D1100004D1100004D110000E8
:1000A0004D11000010B5064C2378002B07D1054BED
:1000B000002B02D0044800E000BF0123237010BDD4
:1000C0007000002000000000E42B000008B5084B81
:1000D000002B03D00748084900E000BF0748036829
:1000E000002B03D0064B002B00D0984708BDC0461C
:1000F00000000000E42B000074000020E42B00004E
:100100000000000000B583B001AB80221A700A78AD
:100110005A704A789A708A78DA70191C014B98479D
:1001200003B000BDF910000010B5031C49084020C1
:1001300099420CD30024C91A601C80B28B4201D8AA
:10014000041CF8E74020FF2C01D81480002010BDCB
:10015000F0B55F4656464D464446F0B487B0061C9F
:100160000D1C049210AA1078321C424340248A428B
:1001700000D9B3E0002B4BD10021321C5E4CA047CC
:1001800083462E1C002700200021002200233F244C
:10019000A4460125A846029003916146203903D464
:1001A00040468840814605E0202165464C1B40467C
:1001B000E040814641466446A1408A46101C191C15
:1001C00080185941021C0B1C5D464C46254202D04A
:1001D000424602430B1C9F420CD801D1964209D8DB
:1001E000921BBB415046029D28434946039C214334
:1001F000029003916546013DAC46CED20298039928
:100200003C4B3B4A121A8B41120C1B041A4362E00E
:100210000022012B5FD14F0FB946CD00AB46002124
:10022000321C0023344CA047061C0F1C0023012560
:10023000029603979A465046C0B205900021884620
:10024000002200233F24271C203F03D42E1CBE4045
:10025000019604E02020071B291CF94001912E1C67
:10026000A6400096101C191C80185941021C0B1C3A
:100270005F463740BC46019E4F463E4067463E4380
:1002800002D02A1C02430B1C039898420BD802D1BF
:100290000299914207D8029E039F921BBB41474699
:1002A00000980743B846013CCDD2414652468B1ACE
:1002B000DB08124CA34208D9059A0132D2B205924A
:1002C0000126B2445746082FB5D140240598082886
:1002D00004D042031A43049C22800024201C07B04F
:1002E0003CBC90469946A246AB46F0BDC046C046CF
:1002F000000000000100000071180000FF1F000056
:1003000010B582B0041C0F4B1B78002B01D00029C4
:100310000DD001A90C700C200B4B98470C200B4BF7
:100320009847084B5C7001221A70002007E0054BCB
:100330005A781D20141B621E94416442204002B072
:1003400010BDC0468C0000201D100000910F000061
:10035000444B984233D006D8434B98420DD0434B80
:1003600098421BD06FE0424B98424AD0414B984292
:1003700058D0414B984266D132E0012965D000291E
:1003800004D0022906D0032906D001E03B4867E0EB
:10039000002065E03A4863E03A4861E0012956D020
:1003A000002904D0022906D0032906D001E0032049
:1003B00056E0002054E0344852E0344850E001292F
:1003C00047D0002904D0022906D0032906D001E035
:1003D0002F4845E0002043E02E4841E02E483FE012
:1003E000012938D0002904D0022906D0032906D0DB
:1003F00001E02A4834E0002032E0294830E0294872
:100400002EE0012929D0002904D0022906D0032991
:1004100006D001E0244823E0002021E023481FE02B
:1004200023481DE001291AD0002904D0022906D052
:10043000032906D001E01F4812E0002010E01E480A
:100440000EE01E480CE000200AE01D4808E01D48B0
:1004500006E01D4804E01D4802E01D4800E01D487C
:100460007047C0460010004200080042000C0042E5
:1004700000180042001C0042001400420300040067
:10048000030006000300070003001E0003001F0016
:100490000300080003000A0003000B000300100023
:1004A000030012000300130003000C0003000E0001
:1004B00003000F00030016000300180003001900DA
:1004C0000300050003000100030009000300110000
:1004D00003000D000300170070B586B00C4A6B4690
:1004E00070CA70C332CA32C3009E864206D001234E
:1004F0009A0069465258824203D100E00023D8B2E4
:1005000003E00133062BF3D1002006B070BDC046D6
:10051000FC280000F0B5474680B40C1C904600282B
:100520000CD1002A0DDD8F18094E0A4D3068211CB0
:100530002B6898470134BC42F8D104E001204042C6
:1005400002E0002000E0404604BC9046F0BDC046FA
:10055000AC010020A4010020F0B5474680B40E1C79
:10056000151C0138022810D8002A11D000240D4B88
:1005700098460D4F43461868315D3B689847002800
:1005800008DB0134A542F5D107E00120404205E037
:10059000002003E00120404200E0201C04BC904603
:1005A000F0BDC046AC010020A8010020F0B55F46B8
:1005B00056464D464446F0B48DB0051C0C1C161C26
:1005C0002960081C7D4B984721680523CA0700D580
:1005D000ECE022681C23970700D5E7E0784B196A06
:1005E000821C012797403A1C0A431A620BA9737FA9
:1005F0000B700D30C7B2381C724B9847381C724BC9
:100600009847707F0021714B9847F37A6B71337D67
:10061000AB71737DEB712F680397381C674B98475C
:100620000D3000226B46DA8231688946F2689246C4
:10063000B37D98467368002B13D0802252059342F5
:100640002BD1F37D002B01D02A682BE03769C0B293
:100650005F4B9847011C381C6A4616325D4B984721
:100660001CE0F37D002B09D0102300933069B169A1
:100670006A4616320023584FB8470FE031698B465F
:10068000C0B2534B9847011C1023009358466A464A
:1006900016320023504FB84700E00020031E00D060
:1006A00084E0D1E7138ADB0BDB039BB2002BF9D18B
:1006B0006B4616331B88039F7B81524649460A438B
:1006C00073681A4347467B071A43F37D002B01D119
:1006D00004231A43307D4004737D1B041843F17AD0
:1006E000B37A0B4318433389FF2B03D0802149048D
:1006F0000A431843337F002B03D1384B9B7899076B
:1007000001D580231A4329680B8ADB0BDB039BB2DC
:10071000002BF9D1039F786029680B8ADB0BDB0380
:100720009BB2002BF9D1039F3A600AAB80221A706A
:1007300000225A70DA709A70316A0691726A0792D2
:10074000B36A0893F66A099600270AAEF9B2BB00AD
:1007500006AA9858002802D1201C214A9047431C21
:1007600005D03070000CC0B2311C1E4A90470137D2
:10077000042FEBD10023AB60EB602B61AB616B61AD
:100780000022EB83AB832023EA542123EA54222363
:10079000EA542323EA542868084B9847041C12495A
:1007A000124B9847A400124BE5500023181C0DB0C3
:1007B0003CBC90469946A246AB46F0BDD904000029
:1007C000000400401D100000910F00000103000014
:1007D00039100000290100005101000000200041F3
:1007E00051030000F91000004D090000810A0000CB
:1007F000B001002010B5021C0368C4791C20002C35
:1008000010D0D28B92B20520002A0BD11A8AD20BBB
:10081000D20392B2002AF9D1198302219A7B0A42AB
:10082000FCD0002010BDC04610B5031C04688279BE
:100830001C20002A26D09B8B9BB20520002B21D1A7
:10084000A37B5A071ED5238ADB0BDB039BB2002B4D
:10085000F9D1238ADBB25A0711D09A0703D50223B4
:1008600023821A200EE05A0703D5042323821E2078
:1008700008E0DA0703D501232382132002E0238B4B
:100880000B80002010BDC046F0B557464E46454689
:10089000E0B4061C88461720002A4DD0F3791C20AE
:1008A000002B49D03468238ADB0BDB039BB2002B7F
:1008B000F9D1924600270125224A91461FE0A27BEA
:1008C0002A4204D1012B29D0013B002BF7D17B1CFC
:1008D0009BB24246D15D7279012A01D01F1C05E00E
:1008E000BA1C97B24246D35C1B021943301C164B0C
:1008F00098475346013B9BB29A46002B16D0A37BE8
:100900002B42E4D14B46DAE7A27B0A4208D1012B05
:1009100008D0013B002BF7D100200DE012200BE0A6
:10092000002009E0122007E0002005E0A37B9A07E1
:10093000FAD4044B0221E7E71CBC90469946A24634
:10094000F0BDC046FFFF0000F5070000F8B58000CD
:10095000494BC5582C68238ADB0BDB039BB2002B69
:10096000F9D1A37B667B1E402123EB5C2022AA5C8D
:10097000171C1F40F10720D5EB8B9BB2002B1AD020
:10098000AB691A78D2B2591CA9616979012904D1DD
:10099000597809020A430233AB61D305DB0D238387
:1009A000EB8B013B9BB2EB83002B06D1012323731E
:1009B0000223637301E001232373B20709D50223E5
:1009C000237300222323EA54FB0702D5281CA968BD
:1009D000884772074ED5AB8B9BB2002B48D0238A39
:1009E000DBB2590722D09A0707D51A222223EA54EC
:1009F000228A02231343238212E0590707D51E22BD
:100A00002223EA54228A04231343238208E0DA07CC
:100A100006D513222223EA54228A01231343238278
:100A20007B0727D52B69281C984723E0228BD2050A
:100A3000D20DD3B269690B706B69591C6961697910
:100A4000012904D1120A5A706B6901336B61AB8BB7
:100A5000013B9BB2AB83002B0CD1042323730022F8
:100A60002223EA54BA0705D5EB68281C984701E011
:100A700004232373F8BDC046B00100207047C04670
:100A8000F0B50A4B1B78002B0CD1094F094E0A4DCB
:100A90000024DE515A1914600433182BF9D10122B5
:100AA000024B1A708000024BC150F0BD9000002034
:100AB000940000207D0A0000B001002010B582B033
:100AC000041C684605490622054B9847201C054B27
:100AD00098476B46185602B010BDC0461429000056
:100AE00001190000D904000008B5024B1B68002062
:100AF000984708BD9400002008B5024B5B680120B0
:100B0000984708BD9400002008B5024B9B6802205E
:100B1000984708BD9400002008B5024BDB6803200D
:100B2000984708BD9400002008B5024B1B690420BB
:100B3000984708BD9400002008B5024B5B6905206A
:100B4000984708BD9400002010B50020084B984736
:100B5000084CFA218900A047074B1860FA21890048
:100B6000A047064B18600522054B1A6010BDC04611
:100B7000050F0000D1170000040000200000002035
:100B800010E000E030B5084B1C68084A00258021C1
:100B9000490206E0002C04D05460956013680B42B3
:100BA000FCD00138F6D230BD0400002010E000E097
:100BB0007047C0460C4B1B68002B10D1EFF310831D
:100BC000002B09D172B6BFF35F8F0022074B1A705A
:100BD0000122074B1A7002E00022054B1A70024BEB
:100BE0001A6801321A607047AC000020080000202B
:100BF000B0000020084B1A68013A1A601B68002BED
:100C000009D1064B1B78002B05D00122044B1A702A
:100C1000BFF35F8F62B67047AC000020B0000020C9
:100C20000800002008B507282BD88000174B1B5858
:100C30009F468020000227E0154BD86824E0154B22
:100C4000186A8005800F144BC340181C1CE0104B21
:100C5000186919E00E4B1B680220184014D00D498A
:100C60001022CB681A42FCD0094B1B685A070AD5E0
:100C700000200A4B9847064B9B681B041B0C5843EB
:100C800002E0002000E0064808BDC0461C29000024
:100C9000B40000200008004000127A003910000063
:100CA000006CDC0270B50C4B1C6A017885784078CA
:100CB0000122104080014026B44304432A40D00161
:100CC00080229443221C024303200140090203486E
:100CD00002400A431A6270BD00080040FFFCFFFF9B
:100CE00007283BD880001E4B1B589F46002036E04B
:100CF0001C4B196A02220A431A6200202FE0194B8A
:100D0000996902220A439A61002028E0154B198A4A
:100D100002220A431A82002021E0124B998A022201
:100D20000A439A8200201AE00F4B196802220A43F4
:100D30001A601A680D4B1A400A4B9A84191C10222B
:100D4000CB681A42FCD0084A9168064BD9625168B8
:100D50009962126892B29A84002000E017207047CE
:100D60003C29000000080040B40000207FFF000084
:100D700030B585B0C222D200134B9A60134B5A682B
:100D80001E218A435A6003A80024447001258570FF
:100D900004700F4B984706200E4B98470E4B984710
:100DA0000E4B1C725C729C7201956A46547006234D
:100DB00013701472547200206946094B9847002042
:100DC000084B984705B030BD000800400040004186
:100DD000A50C0000E10C0000E90D0000000400403B
:100DE0000D0E0000C10E0000064B996908220A434F
:100DF0009A610122044B1A70191C0B781342FCD122
:100E00007047C04600040040000C0040F8B5061CC6
:100E1000071C0D782D0205434B78002B02D0802350
:100E2000DB021D434B7A002B02D080231B031D43A2
:100E30004C68012C17D9631E1C420FD1022C06D915
:100E40000223002201325B009C42FBD800E000221A
:100E50001702374380235B031D4304E02702374317
:100E600080239B021D430B7A002B02D080239B031F
:100E70001D430F4A53785BB2002BFBDB0D4B9847A9
:100E80000D4B1E700A4A53785BB2002BFBDB084BFC
:100E90009F601A1C53785BB2002BFBDB044B596834
:100EA000802252020A4015435D60044B9847F8BD0A
:100EB000000C0040B50B0000080C0040F50B0000D2
:100EC00010B5041C0B4A53785BB2002BFBDB0A4BBA
:100ED00098470A4B1C70074A53785BB2002BFBDB28
:100EE000044B5968802252020A435A60044B9847C7
:100EF00010BDC046000C0040B50B0000040C0040C3
:100F0000F50B000070B5041C1A4A53785BB2002B35
:100F1000FBDB194B9847194B1C70164A53785BB290
:100F2000002BFBDB134E7068C004C00E144B9847B7
:100F3000051C124B1C707668F602F60F114B1C70E4
:100F40000C4A53785BB2002BFBDB0A4B9C68240AEB
:100F5000A4B20D4B9847002E07D1012C07D9281CAD
:100F6000211C0A4B9847051C01E00134E540281C70
:100F700070BDC046000C0040B50B0000040C0040E2
:100F8000250C0000080C0040F50B0000D1170000F4
:100F900010B5041C064B9847064B1C70064B59882D
:100FA0008022D2010A435A80044B984710BDC046A4
:100FB000B50B0000020C0040000C0040F50B0000D7
:100FC00010B5041C0F4B98470F4B1C700F4B5888E3
:100FD0000005000F59880E4A0A405A8059880D4A68
:100FE0000A405A80191C8022D2014B881342FCD13E
:100FF000064B01025888064A02400A435A80064BB3
:10100000984710BDB50B0000020C0040000C0040DA
:10101000FFF0FFFFFFBFFFFFF50B000010B50C78DE
:1010200024020443024B9847A4B2024B5C8010BDDB
:10103000C10F0000000C004010B5041C064B98477F
:10104000064B1C70064B5C882405240F054B984703
:10105000201C054B984710BDB50B0000020C00404A
:10106000000C0040F50B0000050F000030B5D378F0
:10107000002B1ED11378802B04D01B068024640221
:10108000234300E0002354780225AC430AD194782E
:10109000002C03D18024A402234302E0C024E402F4
:1010A000234341605478013C012C04D8114C234067
:1010B00001E0416000230D042D0CA024E4052C4325
:1010C0001C4384620D0CD02424062C431C438462F0
:1010D000D478002C0CD15C0305D59378012B01D179
:1010E000816100E041615378013B012B00D88160B0
:1010F00030BDC046FFFFFBFF08B5031C0A1CC10939
:101100000020002903D15809C001044940181F21BB
:101110000B4001219940024B984708BD0044004113
:101120006D1000007047C04608B5044B9847044B4B
:101130009847044B9847044B984708BD710D000031
:10114000B10B00002511000025110000FEE7C0468C
:1011500010B5194B194A9A4203D0194B164A9A42B4
:1011600004D3184B184A9A4210D31BE0174B14486B
:101170000330C01A80080130800000230E490F4A56
:10118000D458CC5004338342FAD1EAE70E4B1A1DEF
:101190000C490331891A890889005218002102C3B9
:1011A0009342FCD10A4B7F210A4A8A439A600A4B38
:1011B00098470A4B9847FEE700000020E42B000008
:1011C00070000020140200207000002004000020A5
:1011D00000ED00E000000000B5180000C51500009B
:1011E000064B1B68002B02D1054A044B1A60034AC8
:1011F000136818181060181C7047C046C8000020FB
:1012000018220020012040427047C04680239B01E5
:101210004B6000207047C046012070470020704797
:1012200070B582B0051C0E1C00226B46DA80064C9D
:10123000281C69460631A0470028F9D16B460633C1
:101240001B88337002B070BD2908000070B5061C01
:101250000D1C034C301C291CA0470028FAD170BD7E
:10126000F507000070B58CB08023DB0500930023E8
:101270000193FF2269460A818B72CB7201220A75A3
:101280004A758B75CB7506930B774B77E1235B0221
:101290000493C4239B03039301235B4208930993A4
:1012A0002D4B0A932D4B0B932D4E2E4D2E4C301C57
:1012B000291C6A46A0470028F9D1294C2B4B1C60F9
:1012C0002B4A2C4B1A602C4A2C4B1A60201C2549A7
:1012D0006A46254B98472A4E336898680021294D65
:1012E000A847336858680021A8472568281C264B62
:1012F00098471F23184001238340181C234B186074
:101300002268138ADB0BDB039BB2002BF9D12A681E
:10131000022313432B60124B1B681A8AD20BD20391
:1013200092B2002AF9D15968802252020A435A60C7
:1013300001210B4AD1711A8AD20BD20392B2002A30
:10134000F9D15968802292020A435A600122044B63
:101350009A710CB070BDC04603001E0003001F0050
:10136000EC010020000C0042AD050000AC010020A3
:101370004D120000A801002021120000A40100204D
:101380006C000020311A0000BD0A000000E100E0FE
:1013900010B5041C034B984782B20348211C034B31
:1013A000984710BD511B0000EC0100208908000087
:1013B00070B58CB08023DB05009300230193FF22DE
:1013C00069460A818B72CB729622920104920122A5
:1013D0000A754A758B75CB7506930B774B7780230F
:1013E0005B030393284B0893284B099301235B422B
:1013F0000A930B93264E274D274C301C291C6A4616
:10140000A0470028F9D1224D2C68201C234B984777
:101410001F23184001238340181C214B18602A68A1
:10142000138ADB0BDB039BB2002BF9D1226802236A
:1014300013432360164B1B681A8AD20BD20392B255
:10144000002AF9D15968802252020A435A600121C8
:101450000F4AD1711A8AD20BD20392B2002AF9D163
:101460005968802292020A435A600122084B9A71FD
:10147000084C201C0B4B98470B490C4B98470423F6
:10148000637301200CB070BD030028000300290025
:10149000C801002000180042AD050000BD0A000090
:1014A00000E100E0D9040000E1140000810A00001E
:1014B00020280ED03E2802D00D2804D109E00122B8
:1014C000044B1A7005E0044A1378591C1170034A42
:1014D000D05470479901002098010020D0000020CE
:1014E00008B5094B9B7B5A070CD5074B1A8A062374
:1014F000134002D0044A138204E0034B188BC0B29D
:10150000024B984708BDC04600180042B1140000C5
:1015100070B5051C124E301C124CA047021C301C2A
:101520000021114B98470022104B1A70281CA0472D
:101530000F4C82B2201C291C0E4B9847201C0D21F9
:101540000D4DA847201C0A21A84732200B4B984775
:101550000B4A1378002BFCD00022094B1A7070BD87
:10156000D0000020511B000013190000980100203A
:10157000C801002089080000F5070000850B000065
:101580009901002030B583B001AC012363700022C3
:10159000A27023702120211C084DA8472220211C65
:1015A000A8472320211CA847054B02225A61042288
:1015B0005A6108225A6103B030BDC04605010000DF
:1015C00080440041F8B55F4656464D464446F0B467
:1015D0005C4B98475C4B98475C4B984701225C4BAF
:1015E0001A70BFF35F8F62B65A4B98475A4B9847B1
:1015F0005A485B4B98475B485B4B984704245B4FCA
:101600000822904691464B467B61FA26B600301C74
:10161000574DA8474246BA61301CA847013C002CF0
:10162000F1D1FA200001524CA04752484E4DA84734
:101630005148524B99469847514A9046101C514F79
:10164000B847FA26F600301CA0474F48A8474F4835
:10165000C8474046B847301CA0474D48A8474D48AA
:10166000C8474046B847301CA0474B48A8474B489E
:10167000C8474046B847301CA0474948A047082201
:101680003A4B5A61FA208000A0474648A84746488E
:10169000A8471420A0474548A8471E20A047444813
:1016A0002F4CA0474348A047434B9A461D1C4B353F
:1016B0001C1C424A90462C4F304E4046211CB847D5
:1016C000201CB0472E482F4B9847FA208000284B0B
:1016D00098470534AC42F0D10022394B1A60002300
:1016E000384A9346384A9146DB004A46D118584654
:1016F0001D4B9847324B1868C00048441F4B984711
:101700005446324A9046184F1C4E4046211CB8475A
:10171000201CB0471A481B4B9847FA204000144B36
:1017200098470534AC42F0D1254A13680133136061
:10173000072BD9DD00203CBC90469946A246AB461B
:10174000F8BDC04629110000490B000065120000D9
:1017500008000020B1130000851500005C2900007E
:101760001D1A000080290000251900008044004156
:10177000850B0000A8290000BC29000011150000FD
:10178000D000002091130000C0290000D4290000DF
:10179000DC290000F0290000F82900000C2A0000D4
:1017A000B80B0000142A0000202A00003C2A000088
:1017B000402A0000482A0000DC2A00005C2A0000C1
:1017C000CC000020702A00009C2A0000882A00001B
:1017D000002934D00123002210B488422CD30124E4
:1017E0002407A14204D2814202D209011B01F8E779
:1017F000E400A14204D2814202D249005B00F8E732
:10180000884201D3401A1A434C08A04202D3001B5D
:101810005C0822438C08A04202D3001B9C08224390
:10182000CC08A04202D3001BDC082243002803D0CE
:101830001B0901D00909E3E7101C10BC7047002800
:1018400001D00020C04307B4024802A14018029012
:1018500003BDC046190000000029F0D003B5FFF712
:10186000B9FF0EBC4243891A1847C0467047C046AC
:101870009C460304F0B51B0C17043F0C150C1E1CF2
:10188000041C000C7E436B4347434543FB18300C5C
:101890001818874202D980235B02ED18030CED185B
:1018A00063465C434A433604360CA1180004801991
:1018B0004919F0BD70B50E4B0E4D0024ED1AAD1058
:1018C0001E1CAC4204D0A300F35898470134F8E73B
:1018D00001F078F9084B094D0024ED1AAD101E1CDB
:1018E000AC4204D0A300F35898470134F8E770BD28
:1018F000D02B0000D02B0000D02B0000D42B0000F8
:1019000010B50023934203D0CC5CC4540133F9E7F3
:1019100010BD031C8218934202D019700133FAE7FC
:10192000704700000FB40B4B13B51C68002C05D09A
:10193000A369002B02D1201C00F09EFD05ABA1681D
:10194000201C049A019300F031F916BC08BC04B0C5
:101950001847C0466C00002070B5051C0E1C0028FE
:1019600004D08269002A01D100F086FDAC68A38909
:101970001A0702D52369002B19D1281C211C00F05D
:10198000FFFB002813D00120404245E03178002BB6
:101990001BDAA269934211DA281C221C00F098FB82
:1019A000013043425841C0B20028ECD10136A3684F
:1019B0003278013BA360002AE8D10CE0236819705B
:1019C000236819780A2903D1E6E722681170236891
:1019D00001332360EAE7002B17DAA269934208DBA0
:1019E00022680A231370236819780A2911D1281C48
:1019F00001E0281C0A21221C00F06AFB013043424E
:101A00005841C0B2002806D0BDE722680A231370EF
:101A10002368013323600A2070BD000008B5034B22
:101A2000011C1868FFF798FF08BDC0466C00002035
:101A300008B54A424A4180235200DB0000F002F818
:101A400008BD0000F7B51E1C3C4B041C1D680F1C94
:101A50000192002D05D0AA69002A02D1281C00F0AD
:101A60000BFD374B9C4201D16C6808E0354B9C4222
:101A700001D1AC6803E0344B9C4200D1EC68019B7F
:101A8000022B57D8002E55DB281C211C00F074FCBB
:101A900000236360A361A3891A0603D5281C21696A
:101AA00000F0C0FDA38983229343A381019B022BF5
:101AB00013D0002F25D1002E01D18026F600301C36
:101AC00000F09AFD071E18D18020C00000F094FDA0
:101AD000071E10D10120404200E00020A38902220D
:101AE0001343A3810023A360231C47332360236196
:101AF0000123636120E08026F600A389802213433E
:101B0000A381019A012A04D1A3891343A3817342BB
:101B1000A3610E4B0020AB62A38927602761666139
:101B20001A0709D5032213405A4253415B421E4013
:101B3000A66001E001204042FEBDC0466C000020CE
:101B4000642B0000842B0000A42B0000D123000094
:101B50000023C25C0133002AFBD1581E70479368F2
:101B600010B5013B9360002B05DA9469A34208DBB2
:101B7000CBB20A2B05D01368581C10601970C8B27C
:101B800001E000F0A5FA10BDF8B5061C0F1C141CEE
:101B9000D518AC4208D02178301C3A1CFFF7DFFF83
:101BA0000134431CF5D100E00020F8BDF0B59FB032
:101BB000061C0F1C03920593002804D0816900299C
:101BC00001D100F059FC754B9F4201D1776808E0C4
:101BD000734B9F4201D1B76803E0724B9F4200D123
:101BE000F768BB891A070AD53B69002B07D006ADF9
:101BF00000236B6120236B763023AB763BE0301CF7
:101C0000391C00F0BDFA0028F1D001204042C2E0AA
:101C1000059A111D12680591002A76DB099201349C
:101C200023782E2B00D181E021785F48032200F039
:101C3000EDFC002807D05C492A68431A40209840F0
:101C40001043286001342178631C5848062203930E
:101C5000297600F0DBFC002800D18AE0544B002BF1
:101C60007ED1059B072207339343083305936A69A6
:101C7000049953186B61039C2378002B04D10399BA
:101C8000611A029110D003E0252BF8D00134F3E75C
:101C9000301C391C039A029BFFF776FF013075D088
:101CA0006A69029953186B612378002B6ED0012268
:101CB00052426A606A4600235B3201342B60EB605B
:101CC000AB601370AB6521783A48052200F09EFCAA
:101CD000002808D0374A0134831A012098402B6825
:101CE00018432860EFE72B68D90603D56A46202100
:101CF0005B3211701A0703D56A462B215B321170D3
:101D000022782A2A84D0099B05E05242EA60022206
:101D100013432B6083E72278303A092A04D80A213A
:101D20004B4301349B18F6E7099379E763782A2B34
:101D300009D1059B02341A1D1B680592002B0DDA90
:101D400001235B420AE0013400232278303A092A59
:101D500004D80A214B4301349B18F6E7079363E745
:101D600005AB0093301C291C3A1C134B00E000BF4C
:101D700007E005AB0093301C291C3A1C0E4B00F009
:101D800091F804900499013100D070E7BB895A069C
:101D900000D53AE70B981FB0F0BDC046642B000099
:101DA000842B0000A42B0000362B00003A2B0000EF
:101DB00000000000302B0000891B0000F7B5151C47
:101DC00001930A698B68061C0C1C934200DA131CF1
:101DD000221C2B6043321278002A01D001332B6081
:101DE0002068800602D52B6802332B602168062705
:101DF0000F401FD0231C43331B785A1E9341226887
:101E000092061FD5E11840313020C870211C5A1CA1
:101E100045310978A21840320233D17012E0221CF9
:101E2000301C019919320123089FB847013011D0A5
:101E3000009F01370097E0682968009F431A9F427E
:101E4000EDDBD7E7221C301C01994332089FB847CD
:101E5000013002D10120404223E0206806212B6896
:101E6000E26801400025042903D1D51AEB43DB17B2
:101E70001D40A26823699A4201DDD31AED1800279C
:101E80000097009FAF420BDA221C301C01991A32D6
:101E90000123089FB8470130DCD0009F0137EFE7EE
:101EA0000020FEBDF0B50D1C8BB0433506920590A9
:101EB000079304950B7E0C1C109A6E2B00D1A7E0A3
:101EC00011D8632B22D009D8002B00D1B0E0582BB9
:101ED00000D0C0E045310B707B4D4EE0642B1CD030
:101EE000692B1AD0B7E0732B00D1A5E009D86F2B6E
:101EF00029D0702B00D0AEE00E68202333430B6056
:101F000036E0752B1FD0782B32D0A4E013680D1C5F
:101F1000191D423511601B689FE0216813680E0689
:101F200003D5191D11601E6805E04806F9D5191D75
:101F3000116000215E5E644B002E3BDA049D2D2271
:101F400076422A7036E0216813680E0603D5191D03
:101F500011601E6804E04806F9D5191D1E8811603D
:101F6000594B227E039308276F2A1ED00A271CE0B4
:101F7000231C78214533554D197011682368081DBD
:101F8000039510601E0601D50E6802E05806FBD5C9
:101F90000E88D90702D52022134323601027002E74
:101FA00003D1226820239A432260231C002243335A
:101FB0001A7001E003930A276368A360002B03DB18
:101FC0002568042295432560002E02D1049D002B34
:101FD0000ED0049D301C391CFFF73EFC0398013DD8
:101FE000435C301C2B70391CFFF7F2FB061EF1D14D
:101FF000082F09D12168C90706D5626823699A426A
:1020000002DC013D30232B70049E731B23612AE008
:10201000086813684969050604D5181D10601B6817
:10202000196005E04606F8D5181D10601B68198078
:1020300000232361049D16E01368191D11601D68BB
:10204000281CFFF785FD63682061984200D9236151
:102050002069606004E0251C42352B700123236158
:10206000049E00233370079E05980096211C09AA40
:10207000069BFFF7A3FE013002D10120404221E080
:102080002A1C059806992369079DA8470130F4D0BA
:102090002668B60705D4099BE068984212DA181C36
:1020A00010E00025E0680999431A9D42F3DA221CEA
:1020B0000598069919320123079EB0470130DCD0FC
:1020C0000135EFE70BB0F0BD412B0000522B0000B3
:1020D00070B5051C0E1C141C002804D08269002A4F
:1020E00001D100F0C9F9234B9C4201D16C6808E092
:1020F000214B9C4201D1AC6803E0204B9C4200D1B3
:10210000EC68A369A360A3891A070AD52369002B89
:1021100007D022682369F6B2D01A626990420FDBB9
:1021200008E0281C211C00F02BF80028F1D0012029
:1021300040421DE0281C211C00F01EF90028F6D1A9
:10214000A3680130013BA36023685A1C22601E7003
:102150006369984205D0A389301CDA0708D50A2E96
:1021600006D1281C211C00F007F90028DFD1301C03
:1021700070BDC046642B0000842B0000A42B00001F
:10218000344B70B51D68061C0C1C002D05D0A969C8
:10219000002902D1281C00F06FF92F4B9C4201D17D
:1021A0006C6808E02D4B9C4201D1AC6803E02C4BDD
:1021B0009C4200D1EC68A28993B2190721D4D906B8
:1021C00005D40923336040231A43A2813FE05A0714
:1021D00013D5616B002908D0231C4433994202D0E7
:1021E000301C00F01FFA00236363A3892422934369
:1021F000A3810023636023692360A389082213431A
:10220000A381216900290BD1A389A02292001A4041
:1022100080239B009A4203D0301C211C00F09CF9C3
:10222000A38901221A4005D061690022A2604A42B6
:10223000A26103E0990700D46269A26022690020CC
:10224000824206D1190604D540221343A3810120FE
:10225000404270BD6C000020642B0000842B000005
:10226000A42B0000F7B58B89051C0C1C19075ED444
:102270006268002A02DC276C002F1ADDE76A002F53
:1022800017D000222E682A60802252011A4001D005
:10229000626D15E0281C216A0123B847021C411C0D
:1022A0000ED12B68002B0BD01D2B01D0162B02D189
:1022B0002E6000205EE0A38940210B43A38159E0FA
:1022C000A3895F0706D56168636B521A002B01D0A2
:1022D000276CD21B281C216A0023E76AB847A28911
:1022E000411C06D12B68002B03D01D2B01D0162BCF
:1022F00019D10023636023692360D70405D5411CED
:1023000002D12A68002A00D16065616B2E60002925
:10231000CFD0231C4433994202D0281C00F082F90C
:102320000020606326E040231A43A28122E0266950
:10233000002EBED027680022BF1B01972660990798
:1023400000D16269A260019F002FB2DD281C216AC2
:10235000321C019BA76AB847002806DCA3894022EB
:1023600013430120A381404204E0019F36183F1A25
:102370000197E8E7FEBD00000A6938B5051C0C1C92
:10238000002A01D100201CE0002804D08369002B22
:1023900001D100F071F80B4B9C4201D16C6808E050
:1023A000094B9C4201D1AC6803E0084B9C4200D130
:1023B000EC680C22A35E002BE4D0281C211CFFF744
:1023C00051FF38BD642B0000842B0000A42B0000BB
:1023D000F8B5041C071C4834002C12D0A5686668A8
:1023E000013E0CD4AB89012B07D90E22AB5E013321
:1023F00003D0381C291CFFF7BFFF6835F0E72468BD
:10240000EAE7F8BD002310B5041C03604360836055
:1024100081814366C281036143618361191C082283
:102420005C30FFF776FA054B24626362044BA362CB
:10243000044BE362044B236310BDC04681270000B8
:10244000A9270000E12700000D28000070B54B1EF1
:1024500068255D430E1C291C743100F02BF9041E05
:1024600008D00021016046602A1C0C30A060683250
:10247000FFF74FFA201C70BD836913B5041C002BB5
:1024800027D18364C3640365124B134A1B688262BD
:10249000984201D101238361201C00F01FF8606085
:1024A000201C00F01BF8A060201C00F017F804218D
:1024B000E06000226068FFF7A5FFA0680921012203
:1024C000FFF7A0FFE06812210222FFF79BFF012324
:1024D000A36113BD2C2B0000D1230000F8B51D4BC8
:1024E000071C1E68B269002A02D1301CFFF7C4FF26
:1024F0004836B4687368013B05D40C22A55E002DF4
:1025000010D06834F7E73368002B06D1381C04215B
:10251000FFF79CFF3060002801D03668E9E70C2304
:102520003B6016E001235B42E381201C0123A38171
:1025300065662560A560656025616561A5615C30A3
:10254000291C0822FFF7E5F96563A563A564E56426
:10255000201CF8BD2C2B0000F0B58B8991B0051C18
:102560000C1C9A0725D40E23C95E002906DAA78918
:1025700080231F400FD0002740260EE001AA00F064
:1025800071F90028F3DB029BF0273F02184A1F4035
:10259000BF187B425F418026F600281C311C00F0EA
:1025A00089F800280CD1A3899A051FD4022213436D
:1025B000A381231C4733236023610123636115E05A
:1025C0000C4B8022AB62A38920601343A38120615E
:1025D0006661002F0AD00E23E15E281C00F054F93A
:1025E000002803D0A38901221343A38111B0F0BDB9
:1025F00000E0FFFFD123000008B5034B011C186861
:1026000000F058F808BDC0466C000020C9B282181E
:10261000904204D003788B4202D00130F8E70020CA
:102620007047000030B5002940D004390B68002BFA
:1026300000DAC9181E4A1368141C002B02D14B6023
:10264000116033E099420FD208680A189A4205D106
:1026500013685268C01808604A6000E04B6021604F
:1026600024E08A4203D8131C5A68002AF9D11D6855
:102670005C198C420BD1096869185818196090428E
:1026800014D114685268091919605A600EE08C421E
:1026900002D90C23036009E008680C18944203D1A6
:1026A00014685268001908604A60596030BDC0461D
:1026B000A001002070B50323CD1C9D430835061CE6
:1026C0000C2D01D20C2501E0002D3FDB8D423DD3C6
:1026D000204B1C681A1C211C002913D00868431BBE
:1026E0000DD40B2B02D90B60CC181EE08C4202D10A
:1026F000636813601AE0486860600C1C16E00C1CEC
:102700004968E9E7144C2068002803D1301C00F028
:1027100025F82060301C291C00F020F8431C15D03F
:10272000C41C03239C4384420AD12560201C0B3027
:102730000722231D9043C31A0BD05A42E25008E0EF
:10274000211A301C00F00AF80130EED10C2333605E
:10275000002070BDA00100209C01002038B5074C6E
:102760000023051C081C2360FEF73AFD431C03D11F
:102770002368002B00D02B6038BDC046100200201B
:1027800038B50C1C0E25495F00F0A4F8002803DBC7
:10279000626D1318636503E0A289024B1340A381A5
:1027A00038BDC046FFEFFFFFF8B51E1C8B89051C26
:1027B0000C1C171CDA0505D50E23C95E0022022366
:1027C00000F074F8A289054B281C1340A3810E2247
:1027D000A15E331C3A1C00F01FF8F8BDFFEFFFFFAD
:1027E00038B50C1C0E25495F00F060F8A389421C27
:1027F00003D1054A1340A38104E080225201134310
:10280000A381606538BDC046FFEFFFFF08B50E230A
:10281000C95E00F015F808BD38B5084C051C00204D
:102820002060081C111C1A1CFDF796FE431C03D1E6
:102830002368002B00D02B6038BDC046100200205A
:1028400038B5074C0023051C081C2360FEF7DAFC92
:10285000431C03D12368002B00D02B6038BDC04639
:102860001002002038B5074C0023051C081C111C61
:102870002360FEF7CBFC431C03D12368002B00D060
:102880002B6038BD1002002038B5074C0023051C12
:10289000081C2360FEF7C0FC431C03D12368002BF7
:1028A00000D02B6038BDC0461002002038B5084C5F
:1028B000051C00202060081C111C1A1CFEF7AEFC31
:1028C000431C03D12368002B00D02B6038BDC046C9
:1028D0001002002038B5084C051C00202060081CA0
:1028E000111C1A1CFDF716FE431C03D12368002B94
:1028F00000D02B6038BDC046100200200008004206
:10290000000C004200100042001400420018004277
:10291000001C00420708090A0B0C0000380C0000DC
:10292000820C0000820C0000320C0000320C00000F
:102930004E0C00003E0C0000540C00000C0D00007A
:102940005C0D00005C0D0000EC0C0000FE0C0000B3
:102950001A0D0000F00C0000280D00000D0A207771
:10296000656C636F6D6520746F204341524951213E
:102970002121212121212121212121210D000000BE
:102980000A20646F6E65207769746820616C6C2022
:10299000696E697469616C697A6174696F6E7321BB
:1029A0002121200A200000000A2073656E64696EF0
:1029B00067205049442041545A3A000041545A007B
:1029C0000A2073656E64696E672050494420415443
:1029D00052563A0041545256000000000A207365D6
:1029E0006E64696E672050494420303130433A00AC
:1029F00030313043000000000A2073656E64696E58
:102A0000672050494420415444503A0041544450B6
:102A1000000000000A2053616D65657221212100CC
:102A20000A20496E697469616C697A696E6720432E
:102A300041525F5343414E2E2E2E09002E2E2E0062
:102A40002E2E2E2E200000000A2044656661756C33
:102A50007420686561646572000000000A20736577
:102A60006E64696E67205049442025733A20000047
:102A70000A206865616465727320736574206973E8
:102A8000202573200A0000000A2073656E64696EB9
:102A90006720504944202573203A00004154534890
:102AA000374530004154534837453100415453486D
:102AB0003745320041545348374533004154534859
:102AC0003745340041545348374535004154534845
:102AD00037453600415453483745370030313030A0
:102AE000003031303100303130320030313033009D
:102AF0003031303400303130350030313036003054
:102B00003130370030313038003031303900303139
:102B100030610030313062003031306300303130AC
:102B20006400303130650000430000000C000020DC
:102B3000232D302B2000686C4C00656667454647A6
:102B40000030313233343536373839414243444529
:102B50004600303132333435363738396162636498
:102B6000656600000000000000000000000000009A
:102B70000000000000000000000000000000000055
:102B80000000000000000000000000000000000045
:102B90000000000000000000000000000000000035
:102BA0000000000000000000000000000000000025
:102BB0000000000000000000000000000000000015
:102BC00000000000F8B5C046F8BC08BC9E4670473F
:102BD000CD000000F8B5C046F8BC08BC9E46704762
:042BE000A50000004C
:102BE40008000000401F0000010000000000000079
:102BF400642B0000842B0000A42B000000000000C4
:102C0400000000000000000000000000282B00006D
:102C140000000000000000000000000000000000B0
:102C240000000000000000000000000000000000A0
:102C34000000000000000000000000000000000090
:102C44000000000000000000000000000C00002054
:040000030000115197
:00000001FF
