:0200000280007C
:1000000090260720710608006D0608006D0608009E
:100010006D0608006D0608006D060800000000006F
:10002000000000000000000000000000810808003F
:100030006D06080000000000B9080800F508080077
:100040006D0608006D0608006D0608006D060800C4
:100050006D0608006D0608006D0608006D060800B4
:100060006D06080000000000000000007D0308008D
:1000700091030800000000000000000000000000E4
:1000800000000000610D08006D0608006D06080004
:10009000000000006D0608006D0608006D060800EF
:1000A0006D060800000000006D0608006D060800DF
:1000B0006D0608006D0608006D0608006D06080054
:1000C0006D060800000000000000000000000000B5
:1000D0006D0608006D0608006D0608006D06080034
:1000E0006D0608006D0608006D0608006D06080024
:1000F0006D06080010B5054C237833B9044B13B1D5
:100100000448AFF300800123237010BD7005072061
:1001100000000000D411080008B5064B1BB10648CA
:100120000649AFF300800648036813B1054B03B1DD
:10013000984708BD00000000D4110800740507208E
:10014000D41108000000000010B50E480E4B98476F
:1001500020200E4B98470E4CA0470028FCD00D4B9A
:1001600098470D4A0D4B9A620D4CA0470028FCD0D1
:1001700000200C4B98470C4B98470248024B98477D
:1001800010BD00BF00BD0105B10007200904080033
:100190005504080065040800013F062000060E40D3
:1001A00075040800A5030800210708004264B1F1A6
:1001B000805F16D004D8C1B1B1F1006F0AD013E04E
:1001C000B1F1405F11D0B1F1605F0ED0B1F1205FAD
:1001D0000AD17047036F016F0B4023EA02030367E4
:1001E00002E0036F1343036742607047416412F0FB
:1001F000010F14BF4166016612F00A0F14BF0162BD
:10020000416212F0020F02D0C0F8801004E012F038
:10021000080F18BFC0F8841041610160704700BF2B
:1002200010B44164019C0CB1416600E001660BB161
:10023000016500E041650AB1016300E041630161CD
:1002400001605DF8044B7047C06C7047806C70476C
:1002500070B582B00D46440904F5001404F2077429
:10026000660201F0F044B4F1205F30D006D8B4F15A
:10027000006F0AD0B4F1805F18D049E0B4F1405F5C
:1002800030D0B4F1605F2DD042E000F01F000124B7
:10029000844030464FF0006122461F4B984715F0CE
:1002A000010F14BF74663466012032E000F01F00B5
:1002B0000124844030464FF080512246164B984727
:1002C00015F0010F14BF74663466012021E000F0C0
:1002D0001F010124304604FA01F12A460F4B9847CA
:1002E000204616E000F01F01012405F0605205EAE7
:1002F00004030093304604FA01F1B2F1605F14BFC9
:1003000000220122C5F38003054DA847204600E0E6
:10031000002002B070BD00BFAD010800ED01080073
:10032000210208002DE9F04104460E46104B984783
:10033000054620460F4B9847054017D00E4F07F152
:100340000C046C3754F80C3CB3420AD154F8081C26
:10035000294206D023683046984754F8083C25EADD
:100360000305BC4202D01034002DEBD1BDE8F08172
:10037000490208004D0208008C05072008B5024814
:100380000B21024B984708BD000E0E4025030800C4
:1003900008B502480C21024B984708BD00100E40DA
:1003A00025030800174B1A6B22F0700210431863E4
:1003B0009B6E13F0080F09D14FF40063114901E05F
:1003C000013B19D08A6E12F0080FF9D00D4B1A6B51
:1003D00022F0030242F002021A63986E10F0080045
:1003E0000CD14FF40063074901E0013B08D08A6E4D
:1003F00012F0080FF9D070470120704700207047B5
:100400000120704700060E4011490A6A42F45C124E
:1004100042F008020A620A46936E13F4003FFBD0D2
:100420000B4A136A23F45C1323F0700343F45C1348
:1004300003431362936E13F4003FFBD0044A136A24
:1004400023F09B7323F4803343F45C1313627047EF
:1004500000060E40024B986E00F48030704700BFDB
:1004600000060E404FF00052014B9A62704700BFE9
:1004700000060E40024B986E00F00200704700BF6D
:1004800000060E402C2820D81F280DD8124B9A6940
:10049000012383401A40934219D0012303FA00F04C
:1004A0000D4B1861002070470B4BD3F80821203802
:1004B000012383401A4093420BD0012303FA00F03A
:1004C000054BC3F800010020704701207047002051
:1004D00070470020704700BF00060E4010B54FF473
:1004E00000420A4B5A600A204FF00061084CA047B6
:1004F0000B204FF00061A0470C204FF00061A04797
:100500000D204FF00061A04710BD00BF501A0E40F3
:100510005102080010B40B0193420DD91AE0416852
:1005200041F40021416042EA03430362002020E0DD
:1005300001201EE001201CE0D20002EB5302B2FBBE
:10054000F3F3DA0803F00703541E4FF6FE718C42F2
:10055000E9D9EDE7C900D30003EB5103B3FBF1F395
:10056000DA0803F00703541E4FF6FE718C42D6D909
:10057000E0E75DF8044B7047084BC0F8E430002317
:1005800043604362836288230360242303604FF443
:10059000807303604FF4002303607047004153559C
:1005A00070B505460C4616460F4B984700210F4B79
:1005B00019609CB12846216832460D4B9847034686
:1005C00070B9A16862680A4321690A43E06802437E
:1005D00006490A6069680A436A6002E0012300E094
:1005E0000123184670BD00BF79050800FC050720EF
:1005F0001505080040230360704700BF1023036007
:10060000704700BF8160704740697047436913F0CD
:10061000020F1DBFC1F30801C16100200120704716
:10062000436913F0020FFBD0C1F30801C161002040
:10063000704700BF70B505460C46097831B1044ECD
:100640002846B04714F8011F0029F9D170BD00BF3A
:1006500021060800436913F0010F05D08369C3F335
:1006600008030B600020704701207047FEE700BFC1
:1006700010B51E4B1E4A9A4203D01E4B1B4A9A428B
:1006800004D31D4B1D4A9A420FD31AE01C4B1D4C3C
:10069000E41A24F0030404340023144814495A587B
:1006A0001A500433A342FAD1EBE7174B1749C91A82
:1006B00021F003011A1D1144002243F8042F8B423C
:1006C000FBD1134A22F0604323F07F0311498B6072
:1006D00002F16042B2F5801F03D28A6842F00052F4
:1006E0008A600D4B98470D4B9847FEE700000720A6
:1006F000D411080070050720900607207005072018
:1007000004000720730507206C0507208B060720CF
:100710000000080000ED00E0D50D0800290B0800DE
:100720003E4B1B6B03F00303032B5FD8DFE803F0A2
:10073000020E2B2B3A4B5B6913F0800F14BF4FF462
:1007400000424FF4FA42374B1A604FE0334B1B6ABA
:1007500013F0807F03D0344A324B1A6046E0334AAC
:10076000304B1A602D4B1B6A03F07003102B02D024
:10077000202B04D03AE02E4A2A4B1A6036E02A4A4F
:10078000284B1A6032E0254B1B6A13F0807F03D0A0
:10079000254A244B1A6012E0244A224B1A601F4B50
:1007A0001B6A03F07003102B02D0202B04D006E04C
:1007B0001F4A1C4B1A6002E01B4A1A4B1A60174B67
:1007C0001B6B03F00303022B0DD1144B986A996A3B
:1007D000144BC0F30A401A6800FB0222C9B2B2FBF4
:1007E000F1F21A6002E0134A0E4B1A600B4B1B6BBE
:1007F00003F07003702B07D10A4B1A680E49A1FB56
:10080000020252081A607047044B196B054BC1F382
:1008100002111A68CA401A60704700BF00060E40F5
:10082000101A0E4038010720001BB70000093D00D8
:1008300000127A00001C4E0EABAAAAAA43685A689E
:100840004A6042688A605A689160596041600861F4
:100850000368013303607047436882689A60836865
:1008600042685A6003695A68824204BF82685A60CB
:10087000002202611A68013A1A601868704700BFC6
:10088000064B19680868B0E8F00F80F309884FF04C
:10089000000080F311884EF00D0E7047740607209B
:1008A000EFF311804FF0A00181F311887047002011
:1008B00080F31188704700BFEFF309800C4B1A6872
:1008C00020E9F00F10602DE908404FF0A00080F300
:1008D000118800F0B5F84FF0000080F31188BDE8F2
:1008E000084019680868B0E8F00F80F3098870477D
:1008F0007406072008B54FF08052054B1A60054B6F
:100900009847054B98470020044B984708BD00BF07
:1009100004ED00E0A108080021090800B108080062
:100920002DE9F0413A4B1B68002B6BD1394B1A680B
:1009300001321A601B6803BB374B1B681B681BB175
:10094000364B984700BFFDE7334B1968344A1068AF
:1009500018601160334A1168013111601B681B680F
:1009600023B94FF0FF32304B1A6006E02A4B1B6868
:10097000DB68DB685A682C4B1A60264B1A682A4BD6
:100980001B689A4242D3244B1B681B684BB1224B15
:100990001B68DB68DC6863681E4A1268934213D9DF
:1009A0000EE04FF0FF32204B1A60BDE8F0811A4B89
:1009B0001B68DB68DC686368164A1268934207D9D3
:1009C000194A1360BDE8F081184E194FDFF86C80AA
:1009D000251D2846B047A36A13B104F11800B0479B
:1009E000E36A3A68934288BF3B6003EB830008EBFD
:1009F000800029460F4B9847074B1B681B68002B4C
:100A0000D5D1CEE70C4B1A6801321A60BDE8F081EF
:100A1000700607207806072004060720A1080800B2
:100A20007C060720080607203C010720590808001B
:100A3000800607203D080800000607200C06072056
:100A400008B51D4B1B685BB91C4B1B6803EB83038C
:100A50009B001B4AD358CBB9184B1B6853B905E010
:100A60000122184B1A6008BD1A682AB9164B98471C
:100A700000BFFDE7114B12491A68013A1A601A6863
:100A800002EB820251F82220002AEDD00B4B1B68AA
:100A900003EB83030A4A02EB83035A6852685A60E5
:100AA00003F108018A4204BF52685A605B68DA6841
:100AB000064B1A6008BD00BF70060720800607209D
:100AC0000C06072084060720A108080074060720EA
:100AD00070B506460C4D28460C490D4CA0472846DB
:100AE0003146A04728460B49A047A5F58045284632
:100AF0003146A0472846084B1978084B98470848C4
:100B0000084B984770BD00BF00C009409410080012
:100B100035060800A410080040010720210608003F
:100B2000E0930400010007202DE9F04FB7B06E4DAF
:100B30006E4B98476E4B98470B206E4CA0470C208D
:100B4000A047002306930793089309930A930B93F6
:100B50000C930D930E930F9310931193ADF84830AF
:100B600023A865494B22654B9847634B03F14C041E
:100B700013AF3E4620686168A268E3680FC6103470
:100B800037465F4B9C42F4D15E4B4FF400361E61FA
:100B9000C3F8A06000230393049305934FF4165306
:100BA0000093C02301934FF4006302931120DFF8F8
:100BB00044A1D047544C20466946544ADFF89491EA
:100BC000C8472046DFF89081C0472046504FB847BD
:100BD000204601214F4B98474F4B1E601220D047B3
:100BE0004E4E30466946494AC8473046C0473046AF
:100BF000B84730464A494B4FB847DFF83CA150460A
:100C0000494EB04720464949B847DFF85091204641
:100C100099F80010DFF83881C0475046B0472046A9
:100C20004349B847204699F80010C0474148B047AB
:100C30000424DFF8D0804FF40039CA46C8F834A045
:100C40003D4F3846384EB047C8F830903846B04728
:100C5000013CF3D1314C20463849324B984720466D
:100C60003749384B984700283DD0354A10600DF180
:100C7000D70623AC4FF00108334F85F8008020469B
:100C8000B8470534B442F8D10DF14C090DF18C0B85
:100C9000DFF888A0DFF8B08050462C49214CA047EF
:100CA00050464946A047184F38464946A04738465F
:100CB0000D21274B984720481B4B984723AC4FF0FA
:100CC00001072F702046C0470534B442F9D109F11D
:100CD0000809D945E0D14FF400320A4B5A6316484F
:100CE000114B984724E7FEE78C06072049010800CE
:100CF000DD0408008504080008100800250E08001F
:100D00009410080000100E400080094000BD01054D
:100D1000FD0508000506080000E100E000C00940EC
:100D200020110800350608000100072038110800CE
:100D300040110800808D5B00C0C62D0048110800DE
:100D40008806072055060800D10A0800801108000F
:100D500021060800A1050800F5050800400107204C
:100D600010B582B01248134B984710F0010F1CD0F9
:100D70000F4801A9104B9847019901B9FEE70F4CA4
:100D800020460F4B984720460E490F4B9847019B32
:100D90003E2B07D101220D4B1A7020460C49084BFF
:100DA000984702E00022094B1A7002B010BD00BF44
:100DB00000800940090608005506080000C00940E7
:100DC0000D06080090110800350608008C06072063
:100DD000A411080070B50F4E0F4D761BB61007D04A
:100DE000043D0024013455F8043F9847A642F9D148
:100DF0000A4E0B4D00F0DCF9761BB61008D0043D0E
:100E00000024013455F8043F9847A642F9D170BD3B
:100E100070BD00BFBC110800BC110800C41108005F
:100E2000BC110800844641EA000313F0030349D1D2
:100E3000403A23D30B6803604B6843608B68836040
:100E4000CB68C3600B6903614B6943618B69836144
:100E5000CB69C3610B6A03624B6A43628B6A83622C
:100E6000CB6AC3620B6B03634B6B43638B6B836314
:100E7000CB6BC36340304031403ADBD230320BD3CE
:100E80000B6803604B6843608B688360CB68C3600A
:100E900010301031103AF3D20C3205D351F8043B24
:100EA00040F8043B043AF9D2043208D0D2071CBF00
:100EB00011F8013B00F8013B01D30B880380604629
:100EC000704700BF082A13D38B07B1D010F003037B
:100ED000AED0C3F10403D21ADB071CBF11F8013BEB
:100EE00000F8013BA4D331F8023B20F8023B9FE716
:100EF000043AD9D3013A11F8013B00F8013BF9D289
:100F00000B7803704B7843708B7883706046704722
:100F1000024B13B1024800F005B870470000000012
:100F2000310F0800014600200246034600F018B8C1
:100F300038B5094D094C641BA41018BF05EB840596
:100F400005D0013C55F8043D9847002CF9D1BDE887
:100F5000384000F037B900BFD0110800D4110800A4
:100F6000F0B5274C85B026680746D6F84841002CD6
:100F700040D065681F2D1EDD224818B94FF0FF30A4
:100F800005B0F0BD4FF4C870039102920193AFF326
:100F9000008003990446029A019B0028EED0D6F8FF
:100FA00048510020256060600546C6F84841C4F8F5
:100FB0008801C4F88C013FB96B1C002002356360C6
:100FC00044F8251005B0F0BD0126AE4004EB8500C5
:100FD000C0F88820D4F88821022F42EA0602C4F81B
:100FE0008821C0F80831E7D1D4F88C311E43C4F809
:100FF0008C61E1E706F5A674C6F84841B9E700BF81
:10100000AC110800000000003031303000303130C9
:101010003100303130320030313033003031303453
:10102000003031303500303130360030313037006B
:1010300030313038003031303900303130610030FB
:101040003130620030313063003031306400303193
:1010500030650000415453483745300041545348EF
:1010600037453100415453483745320041545348C5
:1010700037453300415453483745340041545348B1
:10108000374535004154534837453600415453489D
:101090003745370053454E44494E47205049442078
:1010A0003A0000002D2D20005052455353204C2073
:1010B000544F204143544956415445204C495354C0
:1010C000454E494E47204D4F44450000415448315C
:1010D0000000000041545331000000004154414CD5
:1010E0000000000041544D41000000000A202D2D59
:1010F0002D2D2D2D2D2D2D2D2D2D4C495354454E5F
:10110000494E47204D4F4445204143544956415490
:1011100045442D2D2D2D2D2D2D2D2D2D2D2D2D00FD
:1011200057656C636F6D6520546F20434152695160
:101130002121210A00000000415452560000000005
:1011400030313063000000000A20646F6E65207744
:101150006974682062617369632074657374696E71
:101160006721212120707265737320616E79206B75
:10117000657920746F2070726F636565640000008C
:101180004845414445522053455420203A20000010
:10119000454E544552454420494E544552525255AD
:1011A000505400000D0A00004300000048010720D1
:1011B000F8B500BFF8BC08BC9E467047110F080088
:1011C00019010800F8B500BFF8BC08BC9E4670477E
:0411D000F50008001E
:1011D400BFF35F8F0138FBD1704700BF4FF48063CA
:1011E400204A136002F5007213601F4B1B6A13F050
:1011F400807F07D11D4A1C4B1A621A46936E13F066
:10120400010FFBD01A4A184B1A621A46936E13F454
:10121400803FFBD0144B1A6B22F0030242F0010210
:101224001A631A46936E13F0080FFBD0114A0E4B43
:101234009A621A46936E13F0020FFBD011220A4BE6
:101244001A631A46936E13F0080FFBD01222064B52
:101254001A631A46936E13F0080FFBD0064A074B25
:101264001A607047000A0E4000060E400908370055
:1012740009083701013F0D2000BD01053801072091
:101284001B4B984206D800231A4A136002F50072D9
:1012940013607047184B984207D84FF48073154A6F
:1012A400136002F5007213607047144B984207D81C
:1012B4004FF400730F4A136002F500721360704715
:1012C4000F4B984207D84FF440730A4A136002F553
:1012D4000072136070470B4B984294BF4FF48063C5
:1012E4004FF4A063034A136002F500721360704761
:1012F400BFEA2101000A0E407FF0FA02FF8FD003FB
:10130400FFB3C4047F4A5D0500093D00FFFFFFFFF2
:101314000D0000000000000000000000340407205D
:101324009C040720040507200000000000000000C2
:1013340000000000000000000000000000000000A9
:10134400000000000000000000000000A8110800D8
:101354000000000000000000000000000000000089
:101364000000000000000000000000000000000079
:101374000000000000000000000000000000000069
:101384000000000000000000000000000000000059
:101394000000000000000000000000000000000049
:1013A4000000000000000000000000000000000039
:1013B4000000000000000000000000000000000029
:1013C40001000000000000000E33CDAB34126DE6C6
:1013D400ECDE05000B00000000000000000000002F
:1013E40000000000000000000000000000000000F9
:1013F40000000000000000000000000000000000E9
:1014040000000000000000000000000000000000D8
:1014140000000000000000000000000000000000C8
:040000038000067102
:00000001FF
